{
  "contractName": "ProjectRegistry",
  "abi": [
    {
      "inputs": [
        {
          "internalType": "address",
          "name": "_tokenAddress",
          "type": "address"
        }
      ],
      "stateMutability": "nonpayable",
      "type": "constructor"
    },
    {
      "inputs": [
        {
          "internalType": "address",
          "name": "owner",
          "type": "address"
        }
      ],
      "name": "OwnableInvalidOwner",
      "type": "error"
    },
    {
      "inputs": [
        {
          "internalType": "address",
          "name": "account",
          "type": "address"
        }
      ],
      "name": "OwnableUnauthorizedAccount",
      "type": "error"
    },
    {
      "anonymous": false,
      "inputs": [
        {
          "indexed": true,
          "internalType": "bytes32",
          "name": "projectId",
          "type": "bytes32"
        },
        {
          "indexed": true,
          "internalType": "address",
          "name": "developer",
          "type": "address"
        },
        {
          "indexed": false,
          "internalType": "uint256",
          "name": "equityAmount",
          "type": "uint256"
        }
      ],
      "name": "DeveloperAssigned",
      "type": "event"
    },
    {
      "anonymous": false,
      "inputs": [
        {
          "indexed": true,
          "internalType": "bytes32",
          "name": "projectId",
          "type": "bytes32"
        },
        {
          "indexed": true,
          "internalType": "address",
          "name": "recipient",
          "type": "address"
        },
        {
          "indexed": false,
          "internalType": "uint256",
          "name": "equityAmount",
          "type": "uint256"
        }
      ],
      "name": "EquityDistributed",
      "type": "event"
    },
    {
      "anonymous": false,
      "inputs": [
        {
          "indexed": true,
          "internalType": "bytes32",
          "name": "projectId",
          "type": "bytes32"
        },
        {
          "indexed": true,
          "internalType": "address",
          "name": "investor",
          "type": "address"
        },
        {
          "indexed": false,
          "internalType": "uint256",
          "name": "amount",
          "type": "uint256"
        },
        {
          "indexed": false,
          "internalType": "uint256",
          "name": "equityAmount",
          "type": "uint256"
        }
      ],
      "name": "InvestmentReceived",
      "type": "event"
    },
    {
      "anonymous": false,
      "inputs": [
        {
          "indexed": true,
          "internalType": "bytes32",
          "name": "projectId",
          "type": "bytes32"
        },
        {
          "indexed": true,
          "internalType": "address",
          "name": "legalExpert",
          "type": "address"
        },
        {
          "indexed": false,
          "internalType": "uint256",
          "name": "equityAmount",
          "type": "uint256"
        }
      ],
      "name": "LegalExpertAssigned",
      "type": "event"
    },
    {
      "anonymous": false,
      "inputs": [
        {
          "indexed": true,
          "internalType": "address",
          "name": "previousOwner",
          "type": "address"
        },
        {
          "indexed": true,
          "internalType": "address",
          "name": "newOwner",
          "type": "address"
        }
      ],
      "name": "OwnershipTransferred",
      "type": "event"
    },
    {
      "anonymous": false,
      "inputs": [
        {
          "indexed": true,
          "internalType": "bytes32",
          "name": "projectId",
          "type": "bytes32"
        },
        {
          "indexed": true,
          "internalType": "address",
          "name": "founder",
          "type": "address"
        },
        {
          "indexed": false,
          "internalType": "string",
          "name": "metadataURI",
          "type": "string"
        }
      ],
      "name": "ProjectRegistered",
      "type": "event"
    },
    {
      "anonymous": false,
      "inputs": [
        {
          "indexed": true,
          "internalType": "bytes32",
          "name": "projectId",
          "type": "bytes32"
        },
        {
          "indexed": false,
          "internalType": "bool",
          "name": "active",
          "type": "bool"
        }
      ],
      "name": "ProjectStatusChanged",
      "type": "event"
    },
    {
      "inputs": [],
      "name": "defaultDeveloperPercent",
      "outputs": [
        {
          "internalType": "uint256",
          "name": "",
          "type": "uint256"
        }
      ],
      "stateMutability": "view",
      "type": "function",
      "constant": true
    },
    {
      "inputs": [],
      "name": "defaultFounderPercent",
      "outputs": [
        {
          "internalType": "uint256",
          "name": "",
          "type": "uint256"
        }
      ],
      "stateMutability": "view",
      "type": "function",
      "constant": true
    },
    {
      "inputs": [],
      "name": "defaultInvestorPercent",
      "outputs": [
        {
          "internalType": "uint256",
          "name": "",
          "type": "uint256"
        }
      ],
      "stateMutability": "view",
      "type": "function",
      "constant": true
    },
    {
      "inputs": [],
      "name": "defaultLegalPercent",
      "outputs": [
        {
          "internalType": "uint256",
          "name": "",
          "type": "uint256"
        }
      ],
      "stateMutability": "view",
      "type": "function",
      "constant": true
    },
    {
      "inputs": [],
      "name": "owner",
      "outputs": [
        {
          "internalType": "address",
          "name": "",
          "type": "address"
        }
      ],
      "stateMutability": "view",
      "type": "function",
      "constant": true
    },
    {
      "inputs": [],
      "name": "proVibeToken",
      "outputs": [
        {
          "internalType": "contract ProVibeToken",
          "name": "",
          "type": "address"
        }
      ],
      "stateMutability": "view",
      "type": "function",
      "constant": true
    },
    {
      "inputs": [],
      "name": "renounceOwnership",
      "outputs": [],
      "stateMutability": "nonpayable",
      "type": "function"
    },
    {
      "inputs": [
        {
          "internalType": "address",
          "name": "newOwner",
          "type": "address"
        }
      ],
      "name": "transferOwnership",
      "outputs": [],
      "stateMutability": "nonpayable",
      "type": "function"
    },
    {
      "inputs": [
        {
          "internalType": "bytes32",
          "name": "projectId",
          "type": "bytes32"
        },
        {
          "internalType": "string",
          "name": "metadataURI",
          "type": "string"
        },
        {
          "internalType": "uint256",
          "name": "totalEquity",
          "type": "uint256"
        },
        {
          "internalType": "uint256",
          "name": "equityPrice",
          "type": "uint256"
        }
      ],
      "name": "registerProject",
      "outputs": [],
      "stateMutability": "nonpayable",
      "type": "function"
    },
    {
      "inputs": [
        {
          "internalType": "bytes32",
          "name": "projectId",
          "type": "bytes32"
        },
        {
          "internalType": "address",
          "name": "developer",
          "type": "address"
        },
        {
          "internalType": "uint256",
          "name": "equityAmount",
          "type": "uint256"
        }
      ],
      "name": "assignDeveloper",
      "outputs": [],
      "stateMutability": "nonpayable",
      "type": "function"
    },
    {
      "inputs": [
        {
          "internalType": "bytes32",
          "name": "projectId",
          "type": "bytes32"
        },
        {
          "internalType": "address",
          "name": "legalExpert",
          "type": "address"
        },
        {
          "internalType": "uint256",
          "name": "equityAmount",
          "type": "uint256"
        }
      ],
      "name": "assignLegalExpert",
      "outputs": [],
      "stateMutability": "nonpayable",
      "type": "function"
    },
    {
      "inputs": [
        {
          "internalType": "bytes32",
          "name": "projectId",
          "type": "bytes32"
        }
      ],
      "name": "invest",
      "outputs": [],
      "stateMutability": "payable",
      "type": "function",
      "payable": true
    },
    {
      "inputs": [
        {
          "internalType": "bytes32",
          "name": "projectId",
          "type": "bytes32"
        },
        {
          "internalType": "address",
          "name": "developer",
          "type": "address"
        }
      ],
      "name": "distributeDeveloperEquity",
      "outputs": [],
      "stateMutability": "nonpayable",
      "type": "function"
    },
    {
      "inputs": [
        {
          "internalType": "bytes32",
          "name": "projectId",
          "type": "bytes32"
        },
        {
          "internalType": "address",
          "name": "legalExpert",
          "type": "address"
        }
      ],
      "name": "distributeLegalEquity",
      "outputs": [],
      "stateMutability": "nonpayable",
      "type": "function"
    },
    {
      "inputs": [
        {
          "internalType": "bytes32",
          "name": "projectId",
          "type": "bytes32"
        },
        {
          "internalType": "bool",
          "name": "active",
          "type": "bool"
        }
      ],
      "name": "setProjectStatus",
      "outputs": [],
      "stateMutability": "nonpayable",
      "type": "function"
    },
    {
      "inputs": [
        {
          "internalType": "bytes32",
          "name": "projectId",
          "type": "bytes32"
        },
        {
          "internalType": "uint256",
          "name": "newPrice",
          "type": "uint256"
        }
      ],
      "name": "updateEquityPrice",
      "outputs": [],
      "stateMutability": "nonpayable",
      "type": "function"
    },
    {
      "inputs": [
        {
          "internalType": "uint256",
          "name": "founderPercent",
          "type": "uint256"
        },
        {
          "internalType": "uint256",
          "name": "developerPercent",
          "type": "uint256"
        },
        {
          "internalType": "uint256",
          "name": "legalPercent",
          "type": "uint256"
        },
        {
          "internalType": "uint256",
          "name": "investorPercent",
          "type": "uint256"
        }
      ],
      "name": "updateDefaultPercentages",
      "outputs": [],
      "stateMutability": "nonpayable",
      "type": "function"
    },
    {
      "inputs": [
        {
          "internalType": "bytes32",
          "name": "projectId",
          "type": "bytes32"
        }
      ],
      "name": "getProjectInfo",
      "outputs": [
        {
          "internalType": "bool",
          "name": "exists",
          "type": "bool"
        },
        {
          "internalType": "address",
          "name": "founder",
          "type": "address"
        },
        {
          "internalType": "string",
          "name": "metadataURI",
          "type": "string"
        },
        {
          "internalType": "bool",
          "name": "active",
          "type": "bool"
        },
        {
          "internalType": "uint256",
          "name": "createdAt",
          "type": "uint256"
        },
        {
          "internalType": "uint256",
          "name": "totalEquity",
          "type": "uint256"
        },
        {
          "internalType": "uint256",
          "name": "equityPrice",
          "type": "uint256"
        }
      ],
      "stateMutability": "view",
      "type": "function",
      "constant": true
    },
    {
      "inputs": [
        {
          "internalType": "bytes32",
          "name": "projectId",
          "type": "bytes32"
        },
        {
          "internalType": "address",
          "name": "developer",
          "type": "address"
        }
      ],
      "name": "getDeveloperContribution",
      "outputs": [
        {
          "internalType": "bool",
          "name": "hasContributed",
          "type": "bool"
        },
        {
          "internalType": "uint256",
          "name": "equityAmount",
          "type": "uint256"
        },
        {
          "internalType": "bool",
          "name": "equityDistributed",
          "type": "bool"
        }
      ],
      "stateMutability": "view",
      "type": "function",
      "constant": true
    },
    {
      "inputs": [
        {
          "internalType": "bytes32",
          "name": "projectId",
          "type": "bytes32"
        },
        {
          "internalType": "address",
          "name": "legalExpert",
          "type": "address"
        }
      ],
      "name": "getLegalContribution",
      "outputs": [
        {
          "internalType": "bool",
          "name": "hasContributed",
          "type": "bool"
        },
        {
          "internalType": "uint256",
          "name": "equityAmount",
          "type": "uint256"
        },
        {
          "internalType": "bool",
          "name": "equityDistributed",
          "type": "bool"
        }
      ],
      "stateMutability": "view",
      "type": "function",
      "constant": true
    },
    {
      "inputs": [
        {
          "internalType": "bytes32",
          "name": "projectId",
          "type": "bytes32"
        },
        {
          "internalType": "address",
          "name": "investor",
          "type": "address"
        }
      ],
      "name": "getInvestment",
      "outputs": [
        {
          "internalType": "uint256",
          "name": "amount",
          "type": "uint256"
        },
        {
          "internalType": "uint256",
          "name": "equityAmount",
          "type": "uint256"
        },
        {
          "internalType": "bool",
          "name": "active",
          "type": "bool"
        }
      ],
      "stateMutability": "view",
      "type": "function",
      "constant": true
    },
    {
      "inputs": [],
      "name": "getAllProjectIds",
      "outputs": [
        {
          "internalType": "bytes32[]",
          "name": "",
          "type": "bytes32[]"
        }
      ],
      "stateMutability": "view",
      "type": "function",
      "constant": true
    },
    {
      "inputs": [
        {
          "internalType": "bytes32",
          "name": "projectId",
          "type": "bytes32"
        }
      ],
      "name": "getDeveloperCount",
      "outputs": [
        {
          "internalType": "uint256",
          "name": "",
          "type": "uint256"
        }
      ],
      "stateMutability": "view",
      "type": "function",
      "constant": true
    },
    {
      "inputs": [
        {
          "internalType": "bytes32",
          "name": "projectId",
          "type": "bytes32"
        },
        {
          "internalType": "uint256",
          "name": "index",
          "type": "uint256"
        }
      ],
      "name": "getDeveloperAt",
      "outputs": [
        {
          "internalType": "address",
          "name": "",
          "type": "address"
        }
      ],
      "stateMutability": "view",
      "type": "function",
      "constant": true
    },
    {
      "inputs": [
        {
          "internalType": "bytes32",
          "name": "projectId",
          "type": "bytes32"
        }
      ],
      "name": "getLegalExpertCount",
      "outputs": [
        {
          "internalType": "uint256",
          "name": "",
          "type": "uint256"
        }
      ],
      "stateMutability": "view",
      "type": "function",
      "constant": true
    },
    {
      "inputs": [
        {
          "internalType": "bytes32",
          "name": "projectId",
          "type": "bytes32"
        },
        {
          "internalType": "uint256",
          "name": "index",
          "type": "uint256"
        }
      ],
      "name": "getLegalExpertAt",
      "outputs": [
        {
          "internalType": "address",
          "name": "",
          "type": "address"
        }
      ],
      "stateMutability": "view",
      "type": "function",
      "constant": true
    },
    {
      "inputs": [
        {
          "internalType": "bytes32",
          "name": "projectId",
          "type": "bytes32"
        }
      ],
      "name": "getInvestorCount",
      "outputs": [
        {
          "internalType": "uint256",
          "name": "",
          "type": "uint256"
        }
      ],
      "stateMutability": "view",
      "type": "function",
      "constant": true
    },
    {
      "inputs": [
        {
          "internalType": "bytes32",
          "name": "projectId",
          "type": "bytes32"
        },
        {
          "internalType": "uint256",
          "name": "index",
          "type": "uint256"
        }
      ],
      "name": "getInvestorAt",
      "outputs": [
        {
          "internalType": "address",
          "name": "",
          "type": "address"
        }
      ],
      "stateMutability": "view",
      "type": "function",
      "constant": true
    }
  ],
  "bytecode": "0x60803461012657601f611ca338819003918201601f19168301916001600160401b0383118484101761012a5780849260209460405283398101031261012657516001600160a01b038082169182900361012657331561010e575f549060018060a01b03199133838216175f55604051913391167f8be0079c531659141344cd1fd0a4f28419497f9722a3daafe3b4186f6b6457e05f80a36117706004556109c46005556101f46006556103e860075582156100cc57506001541617600155604051611b64908161013f8239f35b62461bcd60e51b815260206004820152601c60248201527f546f6b656e20616464726573732063616e6e6f74206265207a65726f000000006044820152606490fd5b604051631e4fbdf760e01b81525f6004820152602490fd5b5f80fd5b634e487b7160e01b5f52604160045260245ffdfe60406080815260049081361015610014575f80fd5b5f91823560e01c8063041d156b146117cb5780630def8de71461175b578063209948f31461173e5780634ac647661461168b5780634e05e9a3146116135780635cb91e45146115fa578063715018a6146115a05780637552797c1461156f5780637e6a2025146114e557806383c1cb9114611322578063892c07191461121b5780638da5cb5b146111f35780639bd80eed146111b95780639fe7e4901461113f578063a8d4e7ce14611120578063ac117e1c14610f72578063bc138e7f14610f53578063c257600414610c82578063cb3e02d114610c63578063d48f309114610c3a578063d755d20f14610a26578063e0566833146108c1578063e555989f1461070d578063ed5e782b146106f4578063efd375f214610696578063f242a79a14610282578063f2fde38b146101ed5763fea4eeca14610152575f80fd5b346101e95760803660031901126101e9578035602435906044359260643594610179611852565b6127106101938761018e8861018e8989611aab565b611aab565b036101a657505560055560065560075580f35b906020606492519162461bcd60e51b8352820152601f60248201527f50657263656e7461676573206d7573742061646420757020746f2031303025006044820152fd5b8280fd5b5090346101e95760203660031901126101e9576001600160a01b0382358181169391929084900361027e57610220611852565b83156102685750505f54826bffffffffffffffffffffffff60a01b8216175f55167f8be0079c531659141344cd1fd0a4f28419497f9722a3daafe3b4186f6b6457e05f80a380f35b51631e4fbdf760e01b8152908101849052602490fd5b5f80fd5b50346101e95760803660031901126101e95767ffffffffffffffff9181359160249182358581116104d957366023820112156104d957808301359586116104d957368487830101116104d9576044359285885260209360028552600360ff81868c2001541661065b57811561060d57878a5260028652848a2090888255600191828101336bffffffffffffffffffffffff60a01b8254161790558b8b8a600284019261032e845461187d565b8c601f82116105b3575b505080601f841160011461053e5792610531575b50505f198d851b1c19168c851b1790555b81810161010161ffff1982541617905542858201558360058201556006606435910155805490600160401b82101561051f5782820180825582101561050d575f527fc2575a0e9e593c00f959f8c92f12db2869c3395a3b0502d05e2516446f71f85b01889055805483546005546006546007548e97966001600160a01b03969587169491939190853b15610509578d958f94958b9660c4958f9589958e97519b8c9a8b99630353c47560e11b8b528a015288015260448701526064860152608485015260a48401525af180156104ff579085916104e7575b5050541690813b156101e95787604484928388519586948593632c5e521560e01b8552840152338c8401525af180156104dd5790889392916104c0575b5050937fede0b3f1cce9af61eb3a9dc1556fd39b8f9df21216a10eaad930bd872be073909482845195808752860152018284013785818684010152813395601f80199101168101030190a380f35b6104cc919293506118de565b6104d9578590875f610472565b8680fd5b84513d84823e3d90fd5b6104f0906118de565b6104fb57835f610435565b8380fd5b87513d87823e3d90fd5b8980fd5b88603286634e487b7160e01b5f52525ffd5b634e487b7160e01b8c5260418552888cfd5b8901013590508a5f61034c565b8481528c81209391929190601f198216908e8a8e5b84841061059057505050508111610575575b915050858092501b01905561035d565b60f85f1991881b161c19918a0101351690555f808b8e610565565b829550968098929496919397010135815501940192018f90918e928e8a8e610553565b9190925084815220908b601f840160051c83019310610603575b8f90928f938e93601f8a920160051c01915b8281106105ee5750508c610338565b9250925092505f8155018e8e92878e936105df565b90915081906105cd565b845162461bcd60e51b81528084018790526023818901527f546f74616c20657175697479206d75737420626520677265617465722074686160448201526206e20360ec1b6064820152608490fd5b845162461bcd60e51b81528084018790526016818901527550726f6a65637420616c72656164792065786973747360501b6044820152606490fd5b5050346106f0576106da602092600c836106af36611812565b9390815260028752206106c860ff600383015416611944565b016106d581548310611acc565b6118b5565b60018060a01b0391549060031b1c169051908152f35b5080fd5b5050346106f0576106da602092600a836106af36611812565b5090346101e957806003193601126101e95781359061072a6117fc565b92610733611852565b82855260026020528185209361074f60ff600387015416611944565b6001600160a01b038181169590929060079061076c8815156119cd565b875f5201602052835f209260018401805460ff81161561087e5760ff8160081c1661082f5761ff00191661010017905560015484548994909392909116803b1561082b5786516305eb34e960e01b81529283018881526001600160a01b03909216602083015260408201939093529091839183919082908490829060600103925af180156104dd57610817575b50505f80516020611b0f83398151915291602091549051908152a380f35b610820906118de565b61082b57845f6107f9565b8480fd5b865162461bcd60e51b81526020818601526024808201527f446576656c6f7065722065717569747920616c726561647920646973747269626044820152631d5d195960e21b6064820152608490fd5b865162461bcd60e51b8152602081860152601d60248201527f446576656c6f70657220686173206e6f7420636f6e74726962757465640000006044820152606490fd5b509134610a2357602091826003193601126106f05783358252600283528082209360038501549460019260018060a01b0384830154169560028301938301549160066005850154940154948151968791899181549161091f8361187d565b928386528783821691825f146109fd5750506001146109be575b50505060e0929161094b910388611922565b80519860ff8b1615158a52838a01528801528451948560e0890152865b8681106109a95750505060ff8697610100979688878901015260081c1615156060860152608085015260a084015260c0830152601f80199101168101030190f35b81810183015189820161010001528201610968565b8b52858b208693508b9291905b8284106109e3575050508201018161094b60e0610939565b849295829585835492010152019101909285928a946109cb565b60ff19168782015293151560051b8601909301935084925061094b915060e09050610939565b80fd5b5090346101e957610a3636611828565b909192610a41611852565b83865260209260028452818720610a6c60ff6003830154610a63828216611944565b60081c16611989565b6001600160a01b0382811697610a83891515611a53565b6008830191895f5282885260ff6001875f20015416610bf7578760449160015416875192838092635d5427b960e11b82528d87830152600360248301525afa908115610bed578b91610bc0575b508611610b71575091600b610b6992610b638a8c610b4c60018a997ff1f0bf1280bd0874a2b07ad523f7660c63b88f0394933bc2cc6a03dd7a98e17f9d9c9b5190610b1a82611906565b8c82528d8201958387528c83019586525f528d528a5f20905181550192511515839060ff801983541691151516179055565b51815461ff00191690151560081b61ff0016179055565b01611a18565b51908152a380f35b845162461bcd60e51b8152908101879052602360248201527f496e73756666696369656e74206c6567616c2065717569747920617661696c61604482015262626c6560e81b6064820152608490fd5b90508781813d8311610be6575b610bd78183611922565b8101031261027e57515f610ad0565b503d610bcd565b86513d8d823e3d90fd5b855162461bcd60e51b8152808301899052601d60248201527f4c6567616c2065787065727420616c72656164792061737369676e65640000006044820152606490fd5b5050346106f057816003193601126106f05760015490516001600160a01b039091168152602090f35b5050346106f057816003193601126106f0576020906005549051908152f35b50906020806003193601126104fb5782359182855260028252808520610cb360ff6003830154610a63828216611944565b3415610eff57670de0b6b3a76400008034029034820403610eec576006820154908115610ed957049460018060a01b03906044858360015416865192838092635d5427b960e11b82528b878301528660248301525afa908115610ecf578991610ea2575b508711610e505790879291610d6f8551610d3081611906565b34815260028882018b81528883019060018252335f52600988018b52895f209351845551600184015551151591019060ff801983541691151516179055565b610d7c33600c8501611a18565b8160015416803b1561082b57855163c849042560e01b8152918201888152336020820152604081018a90528591839182908490829060600103925af18015610e46579084939291610e2e575b50829182916001349201541682f115610e255790815f80516020611b0f83398151915292513481528583820152847f7a6759d342bd7ec3cd6bf31bfc9e0c1a42996c6000c5b96871ae2a4aafbda0e0833393a3519384523393a380f35b513d85823e3d90fd5b610e3a909391936118de565b6101e95782915f610dc8565b85513d86823e3d90fd5b835162461bcd60e51b8152908101859052602660248201527f496e73756666696369656e7420696e766573746f722065717569747920617661604482015265696c61626c6560d01b6064820152608490fd5b90508581813d8311610ec8575b610eb98183611922565b8101031261027e57515f610d17565b503d610eaf565b85513d8b823e3d90fd5b634e487b7160e01b885260128752602488fd5b634e487b7160e01b875260118652602487fd5b815162461bcd60e51b8152808601849052602860248201527f496e766573746d656e7420616d6f756e74206d75737420626520677265617465604482015267072207468616e20360c41b6064820152608490fd5b5050346106f057816003193601126106f0576020906006549051908152f35b5090346101e957610f8236611828565b909192610f8d611852565b83865260209260028452818720610faf60ff6003830154610a63828216611944565b6001600160a01b0382811697610fc68915156119cd565b6007830191895f5282885260ff6001875f200154166110dd578760449160015416875192838092635d5427b960e11b82528d87830152600260248301525afa908115610bed578b916110b0575b50861161105d575091600a610b6992610b638a8c610b4c60018a997f03365116fe293c6ebd3248c0346754cb665a1187e9210ec40ccb2a168f2a11469d9c9b5190610b1a82611906565b845162461bcd60e51b8152908101879052602760248201527f496e73756666696369656e7420646576656c6f7065722065717569747920617660448201526661696c61626c6560c81b6064820152608490fd5b90508781813d83116110d6575b6110c78183611922565b8101031261027e57515f611013565b503d6110bd565b855162461bcd60e51b8152808301899052601a60248201527f446576656c6f70657220616c72656164792061737369676e65640000000000006044820152606490fd5b5050346106f057816003193601126106f0576020906007549051908152f35b50346101e957816003193601126101e957816007929361115d6117fc565b923581526002602052209061117860ff600384015416611944565b6001600160a01b03165f908152910160209081529082902060018101549054925160ff808316151582529281019390935260081c1615156040820152606090f35b50346101e95760203660031901126101e95781602093600c9235815260028552206111ea60ff600383015416611944565b01549051908152f35b5050346106f057816003193601126106f057905490516001600160a01b039091168152602090f35b5090346101e95761122b36611812565b9290845260026020528184209161124860ff600385015416611944565b6001830154336001600160a01b0391821614908115611315575b50156112ba5783156112775750506006015580f35b906020606492519162461bcd60e51b8352820152601c60248201527f5072696365206d7573742062652067726561746572207468616e2030000000006044820152fd5b906020608492519162461bcd60e51b8352820152602f60248201527f4f6e6c7920666f756e646572206f7220636f6e7472616374206f776e6572206360448201526e616e2075706461746520707269636560881b6064820152fd5b905085541633145f611262565b5090346101e957806003193601126101e95781359061133f6117fc565b90611348611852565b828552602091600283528186209461136660ff600388015416611944565b6001600160a01b0382811696909290600890611383891515611a53565b888a520185528388209260018401805460ff8116156114a45760ff8160081c1661145157906101008b94939261ff00191617905560015416845493813b156104fb5786516268868760e81b81529081018981526001600160a01b0390931660208401526040830194909452839182908490829060600103925af1801561144757611423575b505490519081525f80516020611b0f8339815191529190a380f35b9561143e5f80516020611b0f833981519152949392976118de565b95909192611408565b83513d89823e3d90fd5b865162461bcd60e51b8152808601899052602760248201527f4c6567616c206578706572742065717569747920616c726561647920646973746044820152661c9a589d5d195960ca1b6064820152608490fd5b60648589808a519262461bcd60e51b845283015260248201527f4c6567616c2065787065727420686173206e6f7420636f6e74726962757465646044820152fd5b50346101e957816003193601126101e957359060243580151580820361082b577f7d70b30895b1e2cf32838b3137f40b5fa05fa3f46bc1be0073021c561ddddc8792611567602093611535611852565b8688526002855260038389200161154f60ff825416611944565b9061ff00825491151560081b169061ff001916179055565b51908152a280f35b50346101e95760203660031901126101e95781602093600a9235815260028552206111ea60ff600383015416611944565b8334610a235780600319360112610a23576115b9611852565b80546001600160a01b03198116825581906001600160a01b03167f8be0079c531659141344cd1fd0a4f28419497f9722a3daafe3b4186f6b6457e08280a380f35b5050346106f0576106da602092600b836106af36611812565b50346101e957816003193601126101e95791600882936116316117fc565b9035835260026020528383209061164e60ff600384015416611944565b6001600160a01b0316835201602090815291902060018101549054925160ff808316151582529281019390935260081c1615156040820152606090f35b828434610a235780600319360112610a23579080519182906003549182855260208095018093600384527fc2575a0e9e593c00f959f8c92f12db2869c3395a3b0502d05e2516446f71f85b90845b81811061172a57505050816116ef910382611922565b83519485948186019282875251809352850193925b82811061171357505050500390f35b835185528695509381019392810192600101611704565b8254845292880192600192830192016116d9565b50346101e957826003193601126101e95760209250549051908152f35b50346101e957816003193601126101e9576060926009839261177b6117fc565b9035835260026020528383209061179860ff600384015416611944565b60018060a01b0316835201602052209081549160ff60026001830154920154169082519384526020840152151590820152f35b50346101e95760203660031901126101e95781602093600b9235815260028552206111ea60ff600383015416611944565b602435906001600160a01b038216820361027e57565b604090600319011261027e576004359060243590565b606090600319011261027e57600435906024356001600160a01b038116810361027e579060443590565b5f546001600160a01b0316330361186557565b60405163118cdaa760e01b8152336004820152602490fd5b90600182811c921680156118ab575b602083101461189757565b634e487b7160e01b5f52602260045260245ffd5b91607f169161188c565b80548210156118ca575f5260205f2001905f90565b634e487b7160e01b5f52603260045260245ffd5b67ffffffffffffffff81116118f257604052565b634e487b7160e01b5f52604160045260245ffd5b6060810190811067ffffffffffffffff8211176118f257604052565b90601f8019910116810190811067ffffffffffffffff8211176118f257604052565b1561194b57565b60405162461bcd60e51b8152602060048201526016602482015275141c9bda9958dd08191bd95cc81b9bdd08195e1a5cdd60521b6044820152606490fd5b1561199057565b60405162461bcd60e51b815260206004820152601560248201527450726f6a656374206973206e6f742061637469766560581b6044820152606490fd5b156119d457565b606460405162461bcd60e51b815260206004820152602060248201527f446576656c6f70657220616464726573732063616e6e6f74206265207a65726f6044820152fd5b8054600160401b8110156118f257611a35916001820181556118b5565b819291549060031b9160018060a01b03809116831b921b1916179055565b15611a5a57565b60405162461bcd60e51b815260206004820152602360248201527f4c6567616c2065787065727420616464726573732063616e6e6f74206265207a60448201526265726f60e81b6064820152608490fd5b91908201809211611ab857565b634e487b7160e01b5f52601160045260245ffd5b15611ad357565b60405162461bcd60e51b8152602060048201526013602482015272496e646578206f7574206f6620626f756e647360681b6044820152606490fdfe294f186f248f126d18f36db2aa3bb90f5f5708a4accbd2b1715ef0894d95d3a2a26469706673582212200b409fc2f9ee2c2f98dbf58a05f29b68f11e6ca4b67fe34b6da4a3f6b802bde964736f6c63430008140033",
  "immutableReferences": {},
  "source": "// SPDX-License-Identifier: MIT\npragma solidity ^0.8.17;\n\nimport \"@openzeppelin/contracts/access/Ownable.sol\";\nimport \"./ProVibeToken.sol\";\n\n/**\n * @title ProjectRegistry\n * @dev Registry for ProVibeCoder projects with equity management\n * This contract manages project registration and the distribution\n * of equity rewards to contributors\n */\ncontract ProjectRegistry is Ownable {\n    // Reference to the ProVibeToken contract\n    ProVibeToken public proVibeToken;\n    \n    // Structure to hold project information\n    struct Project {\n        bytes32 id;\n        address founder;\n        string metadataURI;\n        bool exists;\n        bool active;\n        uint256 createdAt;\n        uint256 totalEquity;\n        uint256 equityPrice;  // Price per equity unit in ETH (wei)\n        mapping(address => Contribution) developerContributions;\n        mapping(address => Contribution) legalContributions;\n        mapping(address => Investment) investments;\n        address[] developers;\n        address[] legalExperts;\n        address[] investors;\n    }\n    \n    // Structure to hold contribution information\n    struct Contribution {\n        uint256 equityAmount;\n        bool hasContributed;\n        bool equityDistributed;\n    }\n    \n    // Structure to hold investment information\n    struct Investment {\n        uint256 amount;\n        uint256 equityAmount;\n        bool active;\n    }\n    \n    // Mapping from project ID to Project\n    mapping(bytes32 => Project) private projects;\n    \n    // Array of all project IDs\n    bytes32[] private projectIds;\n    \n    // Default equity distribution (in basis points, 1% = 100)\n    uint256 public defaultFounderPercent = 6000;  // 60%\n    uint256 public defaultDeveloperPercent = 2500;  // 25%\n    uint256 public defaultLegalPercent = 500;  // 5%\n    uint256 public defaultInvestorPercent = 1000;  // 10%\n    \n    // Events\n    event ProjectRegistered(bytes32 indexed projectId, address indexed founder, string metadataURI);\n    event DeveloperAssigned(bytes32 indexed projectId, address indexed developer, uint256 equityAmount);\n    event LegalExpertAssigned(bytes32 indexed projectId, address indexed legalExpert, uint256 equityAmount);\n    event InvestmentReceived(bytes32 indexed projectId, address indexed investor, uint256 amount, uint256 equityAmount);\n    event EquityDistributed(bytes32 indexed projectId, address indexed recipient, uint256 equityAmount);\n    event ProjectStatusChanged(bytes32 indexed projectId, bool active);\n    \n    /**\n     * @dev Constructor - sets the token contract address\n     * @param _tokenAddress Address of the ProVibeToken contract\n     */\n    constructor(address _tokenAddress) Ownable(msg.sender) {\n        require(_tokenAddress != address(0), \"Token address cannot be zero\");\n        proVibeToken = ProVibeToken(_tokenAddress);\n    }\n    \n    /**\n     * @dev Registers a new project\n     * @param projectId Unique identifier for the project\n     * @param metadataURI URI pointing to the project's metadata\n     * @param totalEquity Total equity units for the project\n     * @param equityPrice Price per equity unit in ETH (wei)\n     */\n    function registerProject(\n        bytes32 projectId,\n        string calldata metadataURI,\n        uint256 totalEquity,\n        uint256 equityPrice\n    ) external {\n        require(!projects[projectId].exists, \"Project already exists\");\n        require(totalEquity > 0, \"Total equity must be greater than 0\");\n        \n        Project storage newProject = projects[projectId];\n        newProject.id = projectId;\n        newProject.founder = msg.sender;\n        newProject.metadataURI = metadataURI;\n        newProject.exists = true;\n        newProject.active = true;\n        newProject.createdAt = block.timestamp;\n        newProject.totalEquity = totalEquity;\n        newProject.equityPrice = equityPrice;\n        \n        projectIds.push(projectId);\n        \n        // Create tokens for this project\n        proVibeToken.createProjectTokens(\n            projectId,\n            totalEquity,\n            defaultFounderPercent,\n            defaultDeveloperPercent,\n            defaultLegalPercent,\n            defaultInvestorPercent\n        );\n        \n        // Distribute founder equity\n        proVibeToken.distributeFounderEquity(projectId, msg.sender);\n        \n        emit ProjectRegistered(projectId, msg.sender, metadataURI);\n    }\n    \n    /**\n     * @dev Assigns a developer to a project\n     * @param projectId The project identifier\n     * @param developer The developer's address\n     * @param equityAmount The amount of equity to allocate\n     */\n    function assignDeveloper(bytes32 projectId, address developer, uint256 equityAmount) external onlyOwner {\n        Project storage project = projects[projectId];\n        require(project.exists, \"Project does not exist\");\n        require(project.active, \"Project is not active\");\n        require(developer != address(0), \"Developer address cannot be zero\");\n        require(!project.developerContributions[developer].hasContributed, \"Developer already assigned\");\n        \n        // Calculate available developer equity\n        uint256 availableDeveloperEquity = proVibeToken.getAvailableTokens(projectId, 2);\n        require(equityAmount <= availableDeveloperEquity, \"Insufficient developer equity available\");\n        \n        // Add developer contribution\n        project.developerContributions[developer] = Contribution({\n            equityAmount: equityAmount,\n            hasContributed: true,\n            equityDistributed: false\n        });\n        \n        project.developers.push(developer);\n        \n        emit DeveloperAssigned(projectId, developer, equityAmount);\n    }\n    \n    /**\n     * @dev Assigns a legal expert to a project\n     * @param projectId The project identifier\n     * @param legalExpert The legal expert's address\n     * @param equityAmount The amount of equity to allocate\n     */\n    function assignLegalExpert(bytes32 projectId, address legalExpert, uint256 equityAmount) external onlyOwner {\n        Project storage project = projects[projectId];\n        require(project.exists, \"Project does not exist\");\n        require(project.active, \"Project is not active\");\n        require(legalExpert != address(0), \"Legal expert address cannot be zero\");\n        require(!project.legalContributions[legalExpert].hasContributed, \"Legal expert already assigned\");\n        \n        // Calculate available legal equity\n        uint256 availableLegalEquity = proVibeToken.getAvailableTokens(projectId, 3);\n        require(equityAmount <= availableLegalEquity, \"Insufficient legal equity available\");\n        \n        // Add legal contribution\n        project.legalContributions[legalExpert] = Contribution({\n            equityAmount: equityAmount,\n            hasContributed: true,\n            equityDistributed: false\n        });\n        \n        project.legalExperts.push(legalExpert);\n        \n        emit LegalExpertAssigned(projectId, legalExpert, equityAmount);\n    }\n    \n    /**\n     * @dev Processes an investment in a project\n     * @param projectId The project identifier\n     */\n    function invest(bytes32 projectId) external payable {\n        Project storage project = projects[projectId];\n        require(project.exists, \"Project does not exist\");\n        require(project.active, \"Project is not active\");\n        require(msg.value > 0, \"Investment amount must be greater than 0\");\n        \n        // Calculate how much equity the investment is worth\n        uint256 equityAmount = (msg.value * 1e18) / project.equityPrice;\n        \n        // Check if enough investor equity is available\n        uint256 availableInvestorEquity = proVibeToken.getAvailableTokens(projectId, 4);\n        require(equityAmount <= availableInvestorEquity, \"Insufficient investor equity available\");\n        \n        // Record the investment\n        project.investments[msg.sender] = Investment({\n            amount: msg.value,\n            equityAmount: equityAmount,\n            active: true\n        });\n        \n        project.investors.push(msg.sender);\n        \n        // Distribute equity to the investor\n        proVibeToken.distributeInvestorEquity(projectId, msg.sender, equityAmount);\n        \n        // Transfer ETH to the project founder\n        payable(project.founder).transfer(msg.value);\n        \n        emit InvestmentReceived(projectId, msg.sender, msg.value, equityAmount);\n        emit EquityDistributed(projectId, msg.sender, equityAmount);\n    }\n    \n    /**\n     * @dev Distributes equity to a developer\n     * @param projectId The project identifier\n     * @param developer The developer's address\n     */\n    function distributeDeveloperEquity(bytes32 projectId, address developer) external onlyOwner {\n        Project storage project = projects[projectId];\n        require(project.exists, \"Project does not exist\");\n        require(developer != address(0), \"Developer address cannot be zero\");\n        \n        Contribution storage contribution = project.developerContributions[developer];\n        require(contribution.hasContributed, \"Developer has not contributed\");\n        require(!contribution.equityDistributed, \"Developer equity already distributed\");\n        \n        // Mark equity as distributed\n        contribution.equityDistributed = true;\n        \n        // Distribute equity\n        proVibeToken.distributeDeveloperEquity(projectId, developer, contribution.equityAmount);\n        \n        emit EquityDistributed(projectId, developer, contribution.equityAmount);\n    }\n    \n    /**\n     * @dev Distributes equity to a legal expert\n     * @param projectId The project identifier\n     * @param legalExpert The legal expert's address\n     */\n    function distributeLegalEquity(bytes32 projectId, address legalExpert) external onlyOwner {\n        Project storage project = projects[projectId];\n        require(project.exists, \"Project does not exist\");\n        require(legalExpert != address(0), \"Legal expert address cannot be zero\");\n        \n        Contribution storage contribution = project.legalContributions[legalExpert];\n        require(contribution.hasContributed, \"Legal expert has not contributed\");\n        require(!contribution.equityDistributed, \"Legal expert equity already distributed\");\n        \n        // Mark equity as distributed\n        contribution.equityDistributed = true;\n        \n        // Distribute equity\n        proVibeToken.distributeLegalEquity(projectId, legalExpert, contribution.equityAmount);\n        \n        emit EquityDistributed(projectId, legalExpert, contribution.equityAmount);\n    }\n    \n    /**\n     * @dev Sets a project's active status\n     * @param projectId The project identifier\n     * @param active Whether the project is active\n     */\n    function setProjectStatus(bytes32 projectId, bool active) external onlyOwner {\n        Project storage project = projects[projectId];\n        require(project.exists, \"Project does not exist\");\n        \n        project.active = active;\n        \n        emit ProjectStatusChanged(projectId, active);\n    }\n    \n    /**\n     * @dev Updates the equity price for a project\n     * @param projectId The project identifier\n     * @param newPrice New price per equity unit in ETH (wei)\n     */\n    function updateEquityPrice(bytes32 projectId, uint256 newPrice) external {\n        Project storage project = projects[projectId];\n        require(project.exists, \"Project does not exist\");\n        require(msg.sender == project.founder || msg.sender == owner(), \"Only founder or contract owner can update price\");\n        require(newPrice > 0, \"Price must be greater than 0\");\n        \n        project.equityPrice = newPrice;\n    }\n    \n    /**\n     * @dev Updates the default equity percentages\n     * @param founderPercent New founder percentage (in basis points)\n     * @param developerPercent New developer percentage (in basis points)\n     * @param legalPercent New legal expert percentage (in basis points)\n     * @param investorPercent New investor percentage (in basis points)\n     */\n    function updateDefaultPercentages(\n        uint256 founderPercent,\n        uint256 developerPercent,\n        uint256 legalPercent,\n        uint256 investorPercent\n    ) external onlyOwner {\n        require(founderPercent + developerPercent + legalPercent + investorPercent == 10000, \"Percentages must add up to 100%\");\n        \n        defaultFounderPercent = founderPercent;\n        defaultDeveloperPercent = developerPercent;\n        defaultLegalPercent = legalPercent;\n        defaultInvestorPercent = investorPercent;\n    }\n    \n    /**\n     * @dev Gets project information\n     * @param projectId The project identifier\n     * @return exists Whether the project exists\n     * @return founder The project founder\n     * @return metadataURI The project metadata URI\n     * @return active Whether the project is active\n     * @return createdAt When the project was created\n     * @return totalEquity Total equity units for the project\n     * @return equityPrice Price per equity unit in ETH (wei)\n     */\n    function getProjectInfo(bytes32 projectId) external view returns (\n        bool exists,\n        address founder,\n        string memory metadataURI,\n        bool active,\n        uint256 createdAt,\n        uint256 totalEquity,\n        uint256 equityPrice\n    ) {\n        Project storage project = projects[projectId];\n        return (\n            project.exists,\n            project.founder,\n            project.metadataURI,\n            project.active,\n            project.createdAt,\n            project.totalEquity,\n            project.equityPrice\n        );\n    }\n    \n    /**\n     * @dev Gets developer contribution information\n     * @param projectId The project identifier\n     * @param developer The developer's address\n     * @return hasContributed Whether the developer has contributed\n     * @return equityAmount The amount of equity allocated\n     * @return equityDistributed Whether the equity has been distributed\n     */\n    function getDeveloperContribution(bytes32 projectId, address developer) external view returns (\n        bool hasContributed,\n        uint256 equityAmount,\n        bool equityDistributed\n    ) {\n        Project storage project = projects[projectId];\n        require(project.exists, \"Project does not exist\");\n        \n        Contribution storage contribution = project.developerContributions[developer];\n        return (\n            contribution.hasContributed,\n            contribution.equityAmount,\n            contribution.equityDistributed\n        );\n    }\n    \n    /**\n     * @dev Gets legal expert contribution information\n     * @param projectId The project identifier\n     * @param legalExpert The legal expert's address\n     * @return hasContributed Whether the legal expert has contributed\n     * @return equityAmount The amount of equity allocated\n     * @return equityDistributed Whether the equity has been distributed\n     */\n    function getLegalContribution(bytes32 projectId, address legalExpert) external view returns (\n        bool hasContributed,\n        uint256 equityAmount,\n        bool equityDistributed\n    ) {\n        Project storage project = projects[projectId];\n        require(project.exists, \"Project does not exist\");\n        \n        Contribution storage contribution = project.legalContributions[legalExpert];\n        return (\n            contribution.hasContributed,\n            contribution.equityAmount,\n            contribution.equityDistributed\n        );\n    }\n    \n    /**\n     * @dev Gets investment information\n     * @param projectId The project identifier\n     * @param investor The investor's address\n     * @return amount The investment amount in ETH (wei)\n     * @return equityAmount The amount of equity allocated\n     * @return active Whether the investment is active\n     */\n    function getInvestment(bytes32 projectId, address investor) external view returns (\n        uint256 amount,\n        uint256 equityAmount,\n        bool active\n    ) {\n        Project storage project = projects[projectId];\n        require(project.exists, \"Project does not exist\");\n        \n        Investment storage investment = project.investments[investor];\n        return (\n            investment.amount,\n            investment.equityAmount,\n            investment.active\n        );\n    }\n    \n    /**\n     * @dev Gets all project IDs\n     * @return Array of project IDs\n     */\n    function getAllProjectIds() external view returns (bytes32[] memory) {\n        return projectIds;\n    }\n    \n    /**\n     * @dev Gets the number of developers for a project\n     * @param projectId The project identifier\n     * @return The number of developers\n     */\n    function getDeveloperCount(bytes32 projectId) external view returns (uint256) {\n        Project storage project = projects[projectId];\n        require(project.exists, \"Project does not exist\");\n        \n        return project.developers.length;\n    }\n    \n    /**\n     * @dev Gets the developer address at a specific index\n     * @param projectId The project identifier\n     * @param index The index in the developers array\n     * @return The developer's address\n     */\n    function getDeveloperAt(bytes32 projectId, uint256 index) external view returns (address) {\n        Project storage project = projects[projectId];\n        require(project.exists, \"Project does not exist\");\n        require(index < project.developers.length, \"Index out of bounds\");\n        \n        return project.developers[index];\n    }\n    \n    /**\n     * @dev Gets the number of legal experts for a project\n     * @param projectId The project identifier\n     * @return The number of legal experts\n     */\n    function getLegalExpertCount(bytes32 projectId) external view returns (uint256) {\n        Project storage project = projects[projectId];\n        require(project.exists, \"Project does not exist\");\n        \n        return project.legalExperts.length;\n    }\n    \n    /**\n     * @dev Gets the legal expert address at a specific index\n     * @param projectId The project identifier\n     * @param index The index in the legal experts array\n     * @return The legal expert's address\n     */\n    function getLegalExpertAt(bytes32 projectId, uint256 index) external view returns (address) {\n        Project storage project = projects[projectId];\n        require(project.exists, \"Project does not exist\");\n        require(index < project.legalExperts.length, \"Index out of bounds\");\n        \n        return project.legalExperts[index];\n    }\n    \n    /**\n     * @dev Gets the number of investors for a project\n     * @param projectId The project identifier\n     * @return The number of investors\n     */\n    function getInvestorCount(bytes32 projectId) external view returns (uint256) {\n        Project storage project = projects[projectId];\n        require(project.exists, \"Project does not exist\");\n        \n        return project.investors.length;\n    }\n    \n    /**\n     * @dev Gets the investor address at a specific index\n     * @param projectId The project identifier\n     * @param index The index in the investors array\n     * @return The investor's address\n     */\n    function getInvestorAt(bytes32 projectId, uint256 index) external view returns (address) {\n        Project storage project = projects[projectId];\n        require(project.exists, \"Project does not exist\");\n        require(index < project.investors.length, \"Index out of bounds\");\n        \n        return project.investors[index];\n    }\n}",
  "sourcePath": "/Users/chimwopara/Documents/Coding/html/provibecoder/frontend/contracts/ethereum-contracts/contracts/ProjectRegistry.sol",
  "compiler": {
    "name": "solc",
    "version": "0.8.20+commit.a1b79de6.Emscripten.clang"
  },
  "schemaVersion": "3.4.16",
  "updatedAt": "2025-03-28T21:19:31.360Z",
  "networkType": "ethereum",
  "devdoc": {
    "details": "Registry for ProVibeCoder projects with equity management This contract manages project registration and the distribution of equity rewards to contributors",
    "errors": {
      "OwnableInvalidOwner(address)": [
        {
          "details": "The owner is not a valid owner account. (eg. `address(0)`)"
        }
      ],
      "OwnableUnauthorizedAccount(address)": [
        {
          "details": "The caller account is not authorized to perform an operation."
        }
      ]
    },
    "kind": "dev",
    "methods": {
      "assignDeveloper(bytes32,address,uint256)": {
        "details": "Assigns a developer to a project",
        "params": {
          "developer": "The developer's address",
          "equityAmount": "The amount of equity to allocate",
          "projectId": "The project identifier"
        }
      },
      "assignLegalExpert(bytes32,address,uint256)": {
        "details": "Assigns a legal expert to a project",
        "params": {
          "equityAmount": "The amount of equity to allocate",
          "legalExpert": "The legal expert's address",
          "projectId": "The project identifier"
        }
      },
      "constructor": {
        "details": "Constructor - sets the token contract address",
        "params": {
          "_tokenAddress": "Address of the ProVibeToken contract"
        }
      },
      "distributeDeveloperEquity(bytes32,address)": {
        "details": "Distributes equity to a developer",
        "params": {
          "developer": "The developer's address",
          "projectId": "The project identifier"
        }
      },
      "distributeLegalEquity(bytes32,address)": {
        "details": "Distributes equity to a legal expert",
        "params": {
          "legalExpert": "The legal expert's address",
          "projectId": "The project identifier"
        }
      },
      "getAllProjectIds()": {
        "details": "Gets all project IDs",
        "returns": {
          "_0": "Array of project IDs"
        }
      },
      "getDeveloperAt(bytes32,uint256)": {
        "details": "Gets the developer address at a specific index",
        "params": {
          "index": "The index in the developers array",
          "projectId": "The project identifier"
        },
        "returns": {
          "_0": "The developer's address"
        }
      },
      "getDeveloperContribution(bytes32,address)": {
        "details": "Gets developer contribution information",
        "params": {
          "developer": "The developer's address",
          "projectId": "The project identifier"
        },
        "returns": {
          "equityAmount": "The amount of equity allocated",
          "equityDistributed": "Whether the equity has been distributed",
          "hasContributed": "Whether the developer has contributed"
        }
      },
      "getDeveloperCount(bytes32)": {
        "details": "Gets the number of developers for a project",
        "params": {
          "projectId": "The project identifier"
        },
        "returns": {
          "_0": "The number of developers"
        }
      },
      "getInvestment(bytes32,address)": {
        "details": "Gets investment information",
        "params": {
          "investor": "The investor's address",
          "projectId": "The project identifier"
        },
        "returns": {
          "active": "Whether the investment is active",
          "amount": "The investment amount in ETH (wei)",
          "equityAmount": "The amount of equity allocated"
        }
      },
      "getInvestorAt(bytes32,uint256)": {
        "details": "Gets the investor address at a specific index",
        "params": {
          "index": "The index in the investors array",
          "projectId": "The project identifier"
        },
        "returns": {
          "_0": "The investor's address"
        }
      },
      "getInvestorCount(bytes32)": {
        "details": "Gets the number of investors for a project",
        "params": {
          "projectId": "The project identifier"
        },
        "returns": {
          "_0": "The number of investors"
        }
      },
      "getLegalContribution(bytes32,address)": {
        "details": "Gets legal expert contribution information",
        "params": {
          "legalExpert": "The legal expert's address",
          "projectId": "The project identifier"
        },
        "returns": {
          "equityAmount": "The amount of equity allocated",
          "equityDistributed": "Whether the equity has been distributed",
          "hasContributed": "Whether the legal expert has contributed"
        }
      },
      "getLegalExpertAt(bytes32,uint256)": {
        "details": "Gets the legal expert address at a specific index",
        "params": {
          "index": "The index in the legal experts array",
          "projectId": "The project identifier"
        },
        "returns": {
          "_0": "The legal expert's address"
        }
      },
      "getLegalExpertCount(bytes32)": {
        "details": "Gets the number of legal experts for a project",
        "params": {
          "projectId": "The project identifier"
        },
        "returns": {
          "_0": "The number of legal experts"
        }
      },
      "getProjectInfo(bytes32)": {
        "details": "Gets project information",
        "params": {
          "projectId": "The project identifier"
        },
        "returns": {
          "active": "Whether the project is active",
          "createdAt": "When the project was created",
          "equityPrice": "Price per equity unit in ETH (wei)",
          "exists": "Whether the project exists",
          "founder": "The project founder",
          "metadataURI": "The project metadata URI",
          "totalEquity": "Total equity units for the project"
        }
      },
      "invest(bytes32)": {
        "details": "Processes an investment in a project",
        "params": {
          "projectId": "The project identifier"
        }
      },
      "owner()": {
        "details": "Returns the address of the current owner."
      },
      "registerProject(bytes32,string,uint256,uint256)": {
        "details": "Registers a new project",
        "params": {
          "equityPrice": "Price per equity unit in ETH (wei)",
          "metadataURI": "URI pointing to the project's metadata",
          "projectId": "Unique identifier for the project",
          "totalEquity": "Total equity units for the project"
        }
      },
      "renounceOwnership()": {
        "details": "Leaves the contract without owner. It will not be possible to call `onlyOwner` functions. Can only be called by the current owner. NOTE: Renouncing ownership will leave the contract without an owner, thereby disabling any functionality that is only available to the owner."
      },
      "setProjectStatus(bytes32,bool)": {
        "details": "Sets a project's active status",
        "params": {
          "active": "Whether the project is active",
          "projectId": "The project identifier"
        }
      },
      "transferOwnership(address)": {
        "details": "Transfers ownership of the contract to a new account (`newOwner`). Can only be called by the current owner."
      },
      "updateDefaultPercentages(uint256,uint256,uint256,uint256)": {
        "details": "Updates the default equity percentages",
        "params": {
          "developerPercent": "New developer percentage (in basis points)",
          "founderPercent": "New founder percentage (in basis points)",
          "investorPercent": "New investor percentage (in basis points)",
          "legalPercent": "New legal expert percentage (in basis points)"
        }
      },
      "updateEquityPrice(bytes32,uint256)": {
        "details": "Updates the equity price for a project",
        "params": {
          "newPrice": "New price per equity unit in ETH (wei)",
          "projectId": "The project identifier"
        }
      }
    },
    "title": "ProjectRegistry",
    "version": 1
  },
  "userdoc": {
    "kind": "user",
    "methods": {},
    "version": 1
  }
}