{
  "contractName": "ProVibeToken",
  "abi": [
    {
      "inputs": [
        {
          "internalType": "address",
          "name": "initialOwner",
          "type": "address"
        },
        {
          "internalType": "address",
          "name": "_feeReceiver",
          "type": "address"
        }
      ],
      "stateMutability": "nonpayable",
      "type": "constructor"
    },
    {
      "inputs": [
        {
          "internalType": "address",
          "name": "spender",
          "type": "address"
        },
        {
          "internalType": "uint256",
          "name": "allowance",
          "type": "uint256"
        },
        {
          "internalType": "uint256",
          "name": "needed",
          "type": "uint256"
        }
      ],
      "name": "ERC20InsufficientAllowance",
      "type": "error"
    },
    {
      "inputs": [
        {
          "internalType": "address",
          "name": "sender",
          "type": "address"
        },
        {
          "internalType": "uint256",
          "name": "balance",
          "type": "uint256"
        },
        {
          "internalType": "uint256",
          "name": "needed",
          "type": "uint256"
        }
      ],
      "name": "ERC20InsufficientBalance",
      "type": "error"
    },
    {
      "inputs": [
        {
          "internalType": "address",
          "name": "approver",
          "type": "address"
        }
      ],
      "name": "ERC20InvalidApprover",
      "type": "error"
    },
    {
      "inputs": [
        {
          "internalType": "address",
          "name": "receiver",
          "type": "address"
        }
      ],
      "name": "ERC20InvalidReceiver",
      "type": "error"
    },
    {
      "inputs": [
        {
          "internalType": "address",
          "name": "sender",
          "type": "address"
        }
      ],
      "name": "ERC20InvalidSender",
      "type": "error"
    },
    {
      "inputs": [
        {
          "internalType": "address",
          "name": "spender",
          "type": "address"
        }
      ],
      "name": "ERC20InvalidSpender",
      "type": "error"
    },
    {
      "inputs": [
        {
          "internalType": "address",
          "name": "owner",
          "type": "address"
        }
      ],
      "name": "OwnableInvalidOwner",
      "type": "error"
    },
    {
      "inputs": [
        {
          "internalType": "address",
          "name": "account",
          "type": "address"
        }
      ],
      "name": "OwnableUnauthorizedAccount",
      "type": "error"
    },
    {
      "anonymous": false,
      "inputs": [
        {
          "indexed": true,
          "internalType": "address",
          "name": "owner",
          "type": "address"
        },
        {
          "indexed": true,
          "internalType": "address",
          "name": "spender",
          "type": "address"
        },
        {
          "indexed": false,
          "internalType": "uint256",
          "name": "value",
          "type": "uint256"
        }
      ],
      "name": "Approval",
      "type": "event"
    },
    {
      "anonymous": false,
      "inputs": [
        {
          "indexed": true,
          "internalType": "bytes32",
          "name": "projectId",
          "type": "bytes32"
        },
        {
          "indexed": true,
          "internalType": "address",
          "name": "recipient",
          "type": "address"
        },
        {
          "indexed": false,
          "internalType": "uint256",
          "name": "amount",
          "type": "uint256"
        },
        {
          "indexed": false,
          "internalType": "string",
          "name": "role",
          "type": "string"
        }
      ],
      "name": "EquityDistributed",
      "type": "event"
    },
    {
      "anonymous": false,
      "inputs": [
        {
          "indexed": true,
          "internalType": "address",
          "name": "previousOwner",
          "type": "address"
        },
        {
          "indexed": true,
          "internalType": "address",
          "name": "newOwner",
          "type": "address"
        }
      ],
      "name": "OwnershipTransferred",
      "type": "event"
    },
    {
      "anonymous": false,
      "inputs": [
        {
          "indexed": true,
          "internalType": "bytes32",
          "name": "projectId",
          "type": "bytes32"
        },
        {
          "indexed": false,
          "internalType": "uint256",
          "name": "totalTokens",
          "type": "uint256"
        }
      ],
      "name": "ProjectTokenCreated",
      "type": "event"
    },
    {
      "anonymous": false,
      "inputs": [
        {
          "indexed": true,
          "internalType": "address",
          "name": "from",
          "type": "address"
        },
        {
          "indexed": true,
          "internalType": "address",
          "name": "to",
          "type": "address"
        },
        {
          "indexed": false,
          "internalType": "uint256",
          "name": "value",
          "type": "uint256"
        }
      ],
      "name": "Transfer",
      "type": "event"
    },
    {
      "inputs": [],
      "name": "MAX_SUPPLY",
      "outputs": [
        {
          "internalType": "uint256",
          "name": "",
          "type": "uint256"
        }
      ],
      "stateMutability": "view",
      "type": "function",
      "constant": true
    },
    {
      "inputs": [
        {
          "internalType": "address",
          "name": "owner",
          "type": "address"
        },
        {
          "internalType": "address",
          "name": "spender",
          "type": "address"
        }
      ],
      "name": "allowance",
      "outputs": [
        {
          "internalType": "uint256",
          "name": "",
          "type": "uint256"
        }
      ],
      "stateMutability": "view",
      "type": "function",
      "constant": true
    },
    {
      "inputs": [
        {
          "internalType": "address",
          "name": "spender",
          "type": "address"
        },
        {
          "internalType": "uint256",
          "name": "value",
          "type": "uint256"
        }
      ],
      "name": "approve",
      "outputs": [
        {
          "internalType": "bool",
          "name": "",
          "type": "bool"
        }
      ],
      "stateMutability": "nonpayable",
      "type": "function"
    },
    {
      "inputs": [
        {
          "internalType": "address",
          "name": "account",
          "type": "address"
        }
      ],
      "name": "balanceOf",
      "outputs": [
        {
          "internalType": "uint256",
          "name": "",
          "type": "uint256"
        }
      ],
      "stateMutability": "view",
      "type": "function",
      "constant": true
    },
    {
      "inputs": [
        {
          "internalType": "uint256",
          "name": "value",
          "type": "uint256"
        }
      ],
      "name": "burn",
      "outputs": [],
      "stateMutability": "nonpayable",
      "type": "function"
    },
    {
      "inputs": [
        {
          "internalType": "address",
          "name": "account",
          "type": "address"
        },
        {
          "internalType": "uint256",
          "name": "value",
          "type": "uint256"
        }
      ],
      "name": "burnFrom",
      "outputs": [],
      "stateMutability": "nonpayable",
      "type": "function"
    },
    {
      "inputs": [],
      "name": "decimals",
      "outputs": [
        {
          "internalType": "uint8",
          "name": "",
          "type": "uint8"
        }
      ],
      "stateMutability": "view",
      "type": "function",
      "constant": true
    },
    {
      "inputs": [],
      "name": "feeReceiver",
      "outputs": [
        {
          "internalType": "address",
          "name": "",
          "type": "address"
        }
      ],
      "stateMutability": "view",
      "type": "function",
      "constant": true
    },
    {
      "inputs": [],
      "name": "name",
      "outputs": [
        {
          "internalType": "string",
          "name": "",
          "type": "string"
        }
      ],
      "stateMutability": "view",
      "type": "function",
      "constant": true
    },
    {
      "inputs": [],
      "name": "owner",
      "outputs": [
        {
          "internalType": "address",
          "name": "",
          "type": "address"
        }
      ],
      "stateMutability": "view",
      "type": "function",
      "constant": true
    },
    {
      "inputs": [],
      "name": "platformFeePercent",
      "outputs": [
        {
          "internalType": "uint256",
          "name": "",
          "type": "uint256"
        }
      ],
      "stateMutability": "view",
      "type": "function",
      "constant": true
    },
    {
      "inputs": [
        {
          "internalType": "bytes32",
          "name": "",
          "type": "bytes32"
        }
      ],
      "name": "projectTokens",
      "outputs": [
        {
          "internalType": "bool",
          "name": "exists",
          "type": "bool"
        },
        {
          "internalType": "uint256",
          "name": "totalTokens",
          "type": "uint256"
        },
        {
          "internalType": "uint256",
          "name": "founderTokens",
          "type": "uint256"
        },
        {
          "internalType": "uint256",
          "name": "developerTokens",
          "type": "uint256"
        },
        {
          "internalType": "uint256",
          "name": "legalTokens",
          "type": "uint256"
        },
        {
          "internalType": "uint256",
          "name": "investorTokens",
          "type": "uint256"
        },
        {
          "internalType": "uint256",
          "name": "platformTokens",
          "type": "uint256"
        },
        {
          "internalType": "bool",
          "name": "initialized",
          "type": "bool"
        }
      ],
      "stateMutability": "view",
      "type": "function",
      "constant": true
    },
    {
      "inputs": [],
      "name": "renounceOwnership",
      "outputs": [],
      "stateMutability": "nonpayable",
      "type": "function"
    },
    {
      "inputs": [],
      "name": "symbol",
      "outputs": [
        {
          "internalType": "string",
          "name": "",
          "type": "string"
        }
      ],
      "stateMutability": "view",
      "type": "function",
      "constant": true
    },
    {
      "inputs": [
        {
          "internalType": "address",
          "name": "to",
          "type": "address"
        },
        {
          "internalType": "uint256",
          "name": "value",
          "type": "uint256"
        }
      ],
      "name": "transfer",
      "outputs": [
        {
          "internalType": "bool",
          "name": "",
          "type": "bool"
        }
      ],
      "stateMutability": "nonpayable",
      "type": "function"
    },
    {
      "inputs": [
        {
          "internalType": "address",
          "name": "from",
          "type": "address"
        },
        {
          "internalType": "address",
          "name": "to",
          "type": "address"
        },
        {
          "internalType": "uint256",
          "name": "value",
          "type": "uint256"
        }
      ],
      "name": "transferFrom",
      "outputs": [
        {
          "internalType": "bool",
          "name": "",
          "type": "bool"
        }
      ],
      "stateMutability": "nonpayable",
      "type": "function"
    },
    {
      "inputs": [
        {
          "internalType": "address",
          "name": "newOwner",
          "type": "address"
        }
      ],
      "name": "transferOwnership",
      "outputs": [],
      "stateMutability": "nonpayable",
      "type": "function"
    },
    {
      "inputs": [
        {
          "internalType": "bytes32",
          "name": "projectId",
          "type": "bytes32"
        },
        {
          "internalType": "uint256",
          "name": "totalTokens",
          "type": "uint256"
        },
        {
          "internalType": "uint256",
          "name": "founderPercent",
          "type": "uint256"
        },
        {
          "internalType": "uint256",
          "name": "developerPercent",
          "type": "uint256"
        },
        {
          "internalType": "uint256",
          "name": "legalPercent",
          "type": "uint256"
        },
        {
          "internalType": "uint256",
          "name": "investorPercent",
          "type": "uint256"
        }
      ],
      "name": "createProjectTokens",
      "outputs": [],
      "stateMutability": "nonpayable",
      "type": "function"
    },
    {
      "inputs": [
        {
          "internalType": "bytes32",
          "name": "projectId",
          "type": "bytes32"
        },
        {
          "internalType": "address",
          "name": "founder",
          "type": "address"
        }
      ],
      "name": "distributeFounderEquity",
      "outputs": [],
      "stateMutability": "nonpayable",
      "type": "function"
    },
    {
      "inputs": [
        {
          "internalType": "bytes32",
          "name": "projectId",
          "type": "bytes32"
        },
        {
          "internalType": "address",
          "name": "developer",
          "type": "address"
        },
        {
          "internalType": "uint256",
          "name": "amount",
          "type": "uint256"
        }
      ],
      "name": "distributeDeveloperEquity",
      "outputs": [],
      "stateMutability": "nonpayable",
      "type": "function"
    },
    {
      "inputs": [
        {
          "internalType": "bytes32",
          "name": "projectId",
          "type": "bytes32"
        },
        {
          "internalType": "address",
          "name": "legalExpert",
          "type": "address"
        },
        {
          "internalType": "uint256",
          "name": "amount",
          "type": "uint256"
        }
      ],
      "name": "distributeLegalEquity",
      "outputs": [],
      "stateMutability": "nonpayable",
      "type": "function"
    },
    {
      "inputs": [
        {
          "internalType": "bytes32",
          "name": "projectId",
          "type": "bytes32"
        },
        {
          "internalType": "address",
          "name": "investor",
          "type": "address"
        },
        {
          "internalType": "uint256",
          "name": "amount",
          "type": "uint256"
        }
      ],
      "name": "distributeInvestorEquity",
      "outputs": [],
      "stateMutability": "nonpayable",
      "type": "function"
    },
    {
      "inputs": [
        {
          "internalType": "uint256",
          "name": "newFeePercent",
          "type": "uint256"
        }
      ],
      "name": "updatePlatformFee",
      "outputs": [],
      "stateMutability": "nonpayable",
      "type": "function"
    },
    {
      "inputs": [
        {
          "internalType": "address",
          "name": "newFeeReceiver",
          "type": "address"
        }
      ],
      "name": "updateFeeReceiver",
      "outputs": [],
      "stateMutability": "nonpayable",
      "type": "function"
    },
    {
      "inputs": [
        {
          "internalType": "bytes32",
          "name": "projectId",
          "type": "bytes32"
        },
        {
          "internalType": "uint8",
          "name": "role",
          "type": "uint8"
        }
      ],
      "name": "getAvailableTokens",
      "outputs": [
        {
          "internalType": "uint256",
          "name": "",
          "type": "uint256"
        }
      ],
      "stateMutability": "view",
      "type": "function",
      "constant": true
    },
    {
      "inputs": [],
      "name": "totalSupply",
      "outputs": [
        {
          "internalType": "uint256",
          "name": "",
          "type": "uint256"
        }
      ],
      "stateMutability": "view",
      "type": "function",
      "constant": true
    }
  ],
  "bytecode": "0x6080604090808252346200051557818162001c5a803803809162000024828562000519565b83398101031262000515576200003a816200053d565b6200004960208093016200053d565b8351915f916006805493856200005f8662000552565b918282526001968988821691825f14620004f6575050600114620004b5575b6200008c9250038662000519565b8651935f8560075491620000a08362000552565b928383528a85821691825f146200049657505060011462000454575b620000ca9250038662000519565b85516001600160401b03908181116200039e5760039080620000ed835462000552565b99601f9a8c8c821162000423575b50508b908b8311600114620003be575f92620003b2575b50505f1982841b1c191690841b1781555b86519182116200039e576004966200013c885462000552565b8a8a821162000362575b50508990898411600114620002f9579383949184925f95620002ed575b50501b925f19911b1c19161784555b6001600160a01b03928316948515620002d757600580546001600160a01b0319808216891790925590969085167f8be0079c531659141344cd1fd0a4f28419497f9722a3daafe3b4186f6b6457e05f80a3620001cf825462000552565b818111620002b6575b507f50726f5669626520546f6b656e0000000000000000000000000000000000001a82556007546200020a9062000552565b81811162000294575b50506214159560ea1b0160075560326009551692831562000246575050600a541617600a55516116b49081620005a68239f35b845162461bcd60e51b815291820152602360248201527f4665652072656365697665722063616e6e6f74206265207a65726f206164647260448201526265737360e81b606482015260849150fd5b620002ae9160075f52885f20910160051c8101906200058d565b5f8062000213565b620002d090835f5282895f20910160051c8101906200058d565b5f620001d8565b8751631e4fbdf760e01b81525f81870152602490fd5b015193505f8062000163565b9190601f19841692895f52848c5f20948d5f905b898383106200034957505050106200032f575b50505050811b01845562000172565b01519060f8845f19921b161c191690555f80808062000320565b8686015189559097019694850194889350018e6200030d565b6200038c918a5f528b825f209181880160051c830193881062000394575b0160051c01906200058d565b5f8a62000146565b9250819262000380565b634e487b7160e01b5f52604160045260245ffd5b015190505f8062000112565b5f8581528d8120889550929190601f198516908f5b8282106200040b5750508411620003f3575b505050811b01815562000123565b01515f1983861b60f8161c191690555f8080620003e5565b8385015186558a979095019493840193018f620003d3565b6200044c91865f528d825f209181870160051c830193871062000394570160051c01906200058d565b5f8c620000fb565b505060075f528588805f20845f915b8583106200047c575050620000ca9350820101620000bc565b80919294505483858c010152019101899084899362000463565b60ff191684820152620000ca94151560051b8401019150620000bc9050565b5050815f528587805f20875f915b858310620004dc5750506200008c93508201016200007e565b80919294505483858c0101520191018890878993620004c3565b60ff1916848201526200008c94151560051b84010191506200007e9050565b5f80fd5b601f909101601f19168101906001600160401b038211908210176200039e57604052565b51906001600160a01b03821682036200051557565b90600182811c9216801562000582575b60208310146200056e57565b634e487b7160e01b5f52602260045260245ffd5b91607f169162000562565b81811062000599575050565b5f81556001016200058d56fe60406080815260049081361015610014575f80fd5b5f91823560e01c806305eb34e914610fb957806306a788ea14610cc257806306fdde0314610bce578063095ea7b314610b2557806318160ddd14610b0657806323b872dd14610ac95780632c5e52151461094a578063313ce5671461092e57806332cb6b0c1461090857806342966c68146108ea578063688687001461079757806370a0823114610760578063715018a61461070357806379cc6790146106d05780638c639a85146106b15780638da5cb5b1461068857806395d89b4114610584578063a9059cbb14610553578063aa0b5988146104eb578063b3f00674146104c2578063baa84f721461048b578063c69bebe4146103ed578063c849042514610298578063d2fd76251461021b578063dd62ed3e146101ce5763f2fde38b1461013c575f80fd5b346101ca5760203660031901126101ca57610155611109565b9061015e6111aa565b6001600160a01b039182169283156101b4575050600554826bffffffffffffffffffffffff60a01b821617600555167f8be0079c531659141344cd1fd0a4f28419497f9722a3daafe3b4186f6b6457e08380a380f35b51631e4fbdf760e01b8152908101849052602490fd5b8280fd5b505034610217578060031936011261021757806020926101ec611109565b6101f4611123565b6001600160a01b0391821683526001865283832091168252845220549051908152f35b5080fd5b50346101ca5760203660031901126101ca57816101009382358152600b6020522060ff815416926001820154926002830154906003840154908401549160058501549360ff6007600688015497015416968151981515895260208901528701526060860152608085015260a084015260c0830152151560e0820152f35b5090346101ca576102a836611139565b9192906102b36111aa565b838652600b602052818620946102cc60ff87541661148a565b6102dc60ff60078801541661152c565b6001600160a01b0382169586156103aa576005906102fb861515611578565b019081549081861161035657509261033385809460089461032c5f8051602061165f833981519152996080996115c4565b90556114cf565b80519283528060208401528201526734b73b32b9ba37b960c11b6060820152a380f35b608490602086519162461bcd60e51b8352820152602860248201527f416d6f756e74206578636565647320617661696c61626c6520696e766573746f6044820152677220746f6b656e7360c01b6064820152fd5b835162461bcd60e51b8152602081840152601f60248201527f496e766573746f7220616464726573732063616e6e6f74206265207a65726f006044820152606490fd5b50346101ca5760203660031901126101ca57610407611109565b61040f6111aa565b6001600160a01b031691821561043c5750506bffffffffffffffffffffffff60a01b600a541617600a5580f35b906020608492519162461bcd60e51b8352820152602360248201527f4665652072656365697665722063616e6e6f74206265207a65726f206164647260448201526265737360e81b6064820152fd5b50346101ca57816003193601126101ca576024359260ff841684036104bf57506020926104b891356115d1565b9051908152f35b80fd5b505034610217578160031936011261021757600a5490516001600160a01b039091168152602090f35b50346101ca5760203660031901126101ca578035916105086111aa565b6101f4831161051957505060095580f35b906020606492519162461bcd60e51b835282015260146024820152734665652063616e6e6f742065786365656420352560601b6044820152fd5b50503461021757806003193601126102175760209061057d610573611109565b602435903361120c565b5160018152f35b50919034610217578160031936011261021757805191809380549160019083821c9282851694851561067e575b602095868610811461066b5785895290811561064757506001146105ef575b6105eb87876105e1828c03836111d6565b5191829182611163565b0390f35b81529295507f8a35acfbc15ff81a39ae7d344fd709f28e8600b4aa8c65c6b64bfe7fe36bd19b5b82841061063457505050826105eb946105e192820101945f806105d0565b8054868501880152928601928101610616565b60ff19168887015250505050151560051b83010192506105e1826105eb5f806105d0565b634e487b7160e01b845260228352602484fd5b93607f16936105b1565b50503461021757816003193601126102175760055490516001600160a01b039091168152602090f35b5050346102175781600319360112610217576020906009549051908152f35b505034610217573660031901126104bf576107006106ec611109565b602435906106fb823383611308565b6113d9565b80f35b83346104bf57806003193601126104bf5761071c6111aa565b600580546001600160a01b0319811690915581906001600160a01b03167f8be0079c531659141344cd1fd0a4f28419497f9722a3daafe3b4186f6b6457e08280a380f35b5050346102175760203660031901126102175760209181906001600160a01b03610788611109565b16815280845220549051908152f35b5090346101ca576107a736611139565b9192906107b26111aa565b838652600b602052818620946107cb60ff87541661148a565b6107db60ff60078801541661152c565b6001600160a01b03821695861561089b5781906107f9861515611578565b019081549081861161084a57509261082a85809460059461032c5f8051602061165f833981519152996080996115c4565b8051928352806020840152820152641b1959d85b60da1b6060820152a380f35b608490602086519162461bcd60e51b8352820152602560248201527f416d6f756e74206578636565647320617661696c61626c65206c6567616c20746044820152646f6b656e7360d81b6064820152fd5b835162461bcd60e51b8152602081840152602360248201527f4c6567616c2065787065727420616464726573732063616e6e6f74206265207a60448201526265726f60e81b6064820152608490fd5b838234610217576020366003190112610217576107009035336113d9565b505034610217578160031936011261021757602090516a52b7d2dcc80cd2e40000008152f35b5050346102175781600319360112610217576020905160128152f35b5090346101ca57806003193601126101ca57813590610967611123565b61096f6111aa565b828552600b6020528185209361098860ff86541661148a565b6001600160a01b0391808316918215610a8657600787019060ff825416610a43575092608094928660089387966109c560028c01928354906114cf565b6109da600686600a54169c019b8c54906114cf565b600160ff19825416179055548551908152856020820152600786820152663337bab73232b960c91b60608201525f8051602061165f833981519152978891a3600a5416955491805192835280602084015282015267706c6174666f726d60c01b6060820152a380f35b606490602087519162461bcd60e51b8352820152601b60248201527f50726f6a65637420616c726561647920696e697469616c697a656400000000006044820152fd5b606490602086519162461bcd60e51b8352820152601e60248201527f466f756e64657220616464726573732063616e6e6f74206265207a65726f00006044820152fd5b5050346102175760603660031901126102175760209061057d610aea611109565b610af2611123565b60443591610b01833383611308565b61120c565b5050346102175781600319360112610217576020906008549051908152f35b50346101ca57816003193601126101ca57610b3e611109565b602435903315610bb7576001600160a01b0316918215610ba057508083602095338152600187528181208582528752205582519081527f8c5be1e5ebec7d5bd14f71427d1e84f3dd0314c0f7b2291e5b200ac8c7c3b925843392a35160018152f35b8351634a1406b160e11b8152908101859052602490fd5b835163e602df0560e01b8152808401869052602490fd5b5090346101ca57826003193601126101ca57805191836003549060019082821c928281168015610cb8575b6020958686108214610ca55750848852908115610c835750600114610c2a575b6105eb86866105e1828b03836111d6565b929550600383527fc2575a0e9e593c00f959f8c92f12db2869c3395a3b0502d05e2516446f71f85b5b828410610c7057505050826105eb946105e192820101945f610c19565b8054868501880152928601928101610c53565b60ff191687860152505050151560051b83010192506105e1826105eb5f610c19565b634e487b7160e01b845260229052602483fd5b93607f1693610bf9565b509190346102175760c036600319011261021757823590602490813590604435926064356084359460a43598610cf66111aa565b878952602096600b885260ff868b205416610f77578615610f29576127109283610d2d8d610d2885610d288a876112e7565b6112e7565b03610ee7576a52b7d2dcc80cd2e4000000610d4a896008546112e7565b11610e9b57610d7e84610d7681610d6e81610d6681978f611477565b04998d611477565b04948b611477565b049c89611477565b0492610d8c60095489611477565b049386519561010087019087821067ffffffffffffffff831117610e8a5750928b9c879693600796938b8e9f977f44effbddf56fcfa4173159bd8b4fe3dcb546589ec21115e7236e3adfe128f5889f8f600b8f9291610e739f9260e08e94610e3a97875260018152838101988952868101998a52606081019a8b52608081019b8c5260a081019d8e5260c081019e8f52019d8e52835252209a5115158b9060ff801983541691151516179055565b5160018a0155516002890155516003880155519086015551600585015551600684015551151591019060ff801983541691151516179055565b610e7f826008546112e7565b60085551908152a280f35b634e487b7160e01b8d52604185528cfd5b865162461bcd60e51b81528084018a90526021818801527f576f756c6420657863656564206d6178696d756d20746f6b656e20737570706c6044820152607960f81b6064820152608490fd5b865162461bcd60e51b81528084018a9052601f818801527f50657263656e7461676573206d7573742061646420757020746f2031303025006044820152606490fd5b855162461bcd60e51b81528083018990526023818701527f546f74616c20746f6b656e73206d75737420626520677265617465722074686160448201526206e20360ec1b6064820152608490fd5b855162461bcd60e51b8152808301899052601e818701527f50726f6a65637420746f6b656e7320616c7265616479206372656174656400006044820152606490fd5b5090346101ca57610fc936611139565b919290610fd46111aa565b838652600b60205281862094610fed60ff87541661148a565b610ffd60ff60078801541661152c565b6001600160a01b0382169586156110c65760039061101c861515611578565b019081549081861161107157509261104d85809460099461032c5f8051602061165f833981519152996080996115c4565b8051928352806020840152820152683232bb32b637b832b960b91b6060820152a380f35b608490602086519162461bcd60e51b8352820152602960248201527f416d6f756e74206578636565647320617661696c61626c6520646576656c6f70604482015268657220746f6b656e7360b81b6064820152fd5b835162461bcd60e51b8152602081840181905260248201527f446576656c6f70657220616464726573732063616e6e6f74206265207a65726f6044820152606490fd5b600435906001600160a01b038216820361111f57565b5f80fd5b602435906001600160a01b038216820361111f57565b606090600319011261111f57600435906024356001600160a01b038116810361111f579060443590565b602080825282518183018190529093925f5b82811061119657505060409293505f838284010152601f8019910116010190565b818101860151848201604001528501611175565b6005546001600160a01b031633036111be57565b60405163118cdaa760e01b8152336004820152602490fd5b90601f8019910116810190811067ffffffffffffffff8211176111f857604052565b634e487b7160e01b5f52604160045260245ffd5b916001600160a01b038084169283156112cf57169283156112b7575f9083825281602052604082205490838210611285575091604082827fddf252ad1be2c89b69c2b068fc378daa952ba7f163c4a11628f55a4df523b3ef958760209652828652038282205586815220818154019055604051908152a3565b60405163391434e360e21b81526001600160a01b03919091166004820152602481019190915260448101839052606490fd5b60405163ec442f0560e01b81525f6004820152602490fd5b604051634b637e8f60e11b81525f6004820152602490fd5b919082018092116112f457565b634e487b7160e01b5f52601160045260245ffd5b9160018060a01b03809316915f9383855260016020526040938486209183169182875260205284862054925f198410611345575b50505050505050565b8484106113a9575080156113915781156113795785526001602052838520908552602052039120555f80808080808061133c565b8451634a1406b160e11b815260048101879052602490fd5b845163e602df0560e01b815260048101879052602490fd5b8551637dc7a0d960e11b81526001600160a01b039190911660048201526024810184905260448101859052606490fd5b906001600160a01b0382169081156112cf575f92828452836020526040842054908282106114455750817fddf252ad1be2c89b69c2b068fc378daa952ba7f163c4a11628f55a4df523b3ef926020928587528684520360408620558060025403600255604051908152a3565b60405163391434e360e21b81526001600160a01b03919091166004820152602481019190915260448101829052606490fd5b818102929181159184041417156112f457565b1561149157565b60405162461bcd60e51b8152602060048201526016602482015275141c9bda9958dd08191bd95cc81b9bdd08195e1a5cdd60521b6044820152606490fd5b6001600160a01b03169081156112b7577fddf252ad1be2c89b69c2b068fc378daa952ba7f163c4a11628f55a4df523b3ef6020826115105f946002546112e7565b60025584845283825260408420818154019055604051908152a3565b1561153357565b60405162461bcd60e51b815260206004820152601760248201527f50726f6a656374206e6f7420696e697469616c697a65640000000000000000006044820152606490fd5b1561157f57565b60405162461bcd60e51b815260206004820152601d60248201527f416d6f756e74206d7573742062652067726561746572207468616e20300000006044820152606490fd5b919082039182116112f457565b5f52600b60205260ff60405f20916115eb8284541661148a565b1660018114611656576002811461164e57600381146116465760041461163f5760405162461bcd60e51b815260206004820152600c60248201526b496e76616c696420726f6c6560a01b6044820152606490fd5b6005015490565b506004015490565b506003015490565b50600201549056fe1b906fa70dc75749576366c26fdcc5e2e28261ecb888ed362ffbd7222ec3de6ca26469706673582212204be57143ba885292d3085672b0e80c7e0620d0632846234fef312bdd48c3fafb64736f6c63430008140033",
  "immutableReferences": {},
  "source": "// SPDX-License-Identifier: MIT\npragma solidity ^0.8.17;\n\nimport \"@openzeppelin/contracts/token/ERC20/ERC20.sol\";\nimport \"@openzeppelin/contracts/token/ERC20/extensions/ERC20Burnable.sol\";\nimport \"@openzeppelin/contracts/access/Ownable.sol\";\n\n/**\n * @title ProVibeToken\n * @dev ERC20 token for the ProVibeCoder platform\n * This token represents equity in projects and can be distributed to\n * contributors based on their work.\n */\ncontract ProVibeToken is ERC20, ERC20Burnable, Ownable {\n    // Token metadata\n    string private _name = \"ProVibe Token\";\n    string private _symbol = \"PVT\";\n    \n    // Maximum tokens that can ever be minted (100 million tokens)\n    uint256 public constant MAX_SUPPLY = 100000000 * 10**18;\n    \n    // Current total supply\n    uint256 private _totalSupply;\n    \n    // Platform fee percentage (0.5%)\n    uint256 public platformFeePercent = 50; // Out of 10000 (0.5%)\n    \n    // Address to receive platform fees\n    address public feeReceiver;\n    \n    // Mapping of project IDs to their token information\n    mapping(bytes32 => ProjectToken) public projectTokens;\n    \n    // Structure to hold project token information\n    struct ProjectToken {\n        bool exists;\n        uint256 totalTokens;\n        uint256 founderTokens;\n        uint256 developerTokens;\n        uint256 legalTokens;\n        uint256 investorTokens;\n        uint256 platformTokens;\n        bool initialized;\n    }\n    \n    // Events\n    event ProjectTokenCreated(bytes32 indexed projectId, uint256 totalTokens);\n    event EquityDistributed(bytes32 indexed projectId, address indexed recipient, uint256 amount, string role);\n    \n    /**\n     * @dev Constructor - initializes the token\n     * @param initialOwner The initial owner of the contract\n     * @param _feeReceiver The address to receive platform fees\n     */\n    constructor(address initialOwner, address _feeReceiver) ERC20(_name, _symbol) Ownable(initialOwner) {\n        require(_feeReceiver != address(0), \"Fee receiver cannot be zero address\");\n        feeReceiver = _feeReceiver;\n    }\n    \n    /**\n     * @dev Creates tokens for a new project\n     * @param projectId Unique identifier for the project\n     * @param totalTokens Total number of tokens to allocate for this project\n     * @param founderPercent Percentage of tokens allocated to the founder (in basis points, 1% = 100)\n     * @param developerPercent Percentage of tokens allocated to developers (in basis points)\n     * @param legalPercent Percentage of tokens allocated to legal experts (in basis points)\n     * @param investorPercent Percentage of tokens allocated to investors (in basis points)\n     */\n    function createProjectTokens(\n        bytes32 projectId,\n        uint256 totalTokens,\n        uint256 founderPercent,\n        uint256 developerPercent,\n        uint256 legalPercent,\n        uint256 investorPercent\n    ) external onlyOwner {\n        require(!projectTokens[projectId].exists, \"Project tokens already created\");\n        require(totalTokens > 0, \"Total tokens must be greater than 0\");\n        \n        // Check that percentages add up to 10000 (100%)\n        uint256 totalPercent = founderPercent + developerPercent + legalPercent + investorPercent;\n        require(totalPercent == 10000, \"Percentages must add up to 100%\");\n        \n        // Check that minting these tokens won't exceed max supply\n        require(_totalSupply + totalTokens <= MAX_SUPPLY, \"Would exceed maximum token supply\");\n        \n        // Calculate token amounts for each role\n        uint256 founderTokens = (totalTokens * founderPercent) / 10000;\n        uint256 developerTokens = (totalTokens * developerPercent) / 10000;\n        uint256 legalTokens = (totalTokens * legalPercent) / 10000;\n        uint256 investorTokens = (totalTokens * investorPercent) / 10000;\n        \n        // Calculate platform fee\n        uint256 platformTokens = (totalTokens * platformFeePercent) / 10000;\n        \n        // Store project token info\n        projectTokens[projectId] = ProjectToken({\n            exists: true,\n            totalTokens: totalTokens,\n            founderTokens: founderTokens,\n            developerTokens: developerTokens,\n            legalTokens: legalTokens,\n            investorTokens: investorTokens,\n            platformTokens: platformTokens,\n            initialized: false\n        });\n        \n        // Increase total supply counter\n        _totalSupply += totalTokens;\n        \n        emit ProjectTokenCreated(projectId, totalTokens);\n    }\n    \n    /**\n     * @dev Distributes founder equity for a project\n     * @param projectId The project identifier\n     * @param founder The founder's address\n     */\n    function distributeFounderEquity(bytes32 projectId, address founder) external onlyOwner {\n        ProjectToken storage project = projectTokens[projectId];\n        require(project.exists, \"Project does not exist\");\n        require(founder != address(0), \"Founder address cannot be zero\");\n        require(!project.initialized, \"Project already initialized\");\n        \n        // Mint tokens to the founder\n        _mint(founder, project.founderTokens);\n        \n        // Mint platform fee tokens\n        _mint(feeReceiver, project.platformTokens);\n        \n        // Mark project as initialized\n        project.initialized = true;\n        \n        emit EquityDistributed(projectId, founder, project.founderTokens, \"founder\");\n        emit EquityDistributed(projectId, feeReceiver, project.platformTokens, \"platform\");\n    }\n    \n    /**\n     * @dev Distributes developer equity for a project\n     * @param projectId The project identifier\n     * @param developer The developer's address\n     * @param amount The amount of tokens to distribute\n     */\n    function distributeDeveloperEquity(bytes32 projectId, address developer, uint256 amount) external onlyOwner {\n        ProjectToken storage project = projectTokens[projectId];\n        require(project.exists, \"Project does not exist\");\n        require(project.initialized, \"Project not initialized\");\n        require(developer != address(0), \"Developer address cannot be zero\");\n        require(amount > 0, \"Amount must be greater than 0\");\n        require(amount <= project.developerTokens, \"Amount exceeds available developer tokens\");\n        \n        // Reduce available developer tokens\n        project.developerTokens -= amount;\n        \n        // Mint tokens to the developer\n        _mint(developer, amount);\n        \n        emit EquityDistributed(projectId, developer, amount, \"developer\");\n    }\n    \n    /**\n     * @dev Distributes legal expert equity for a project\n     * @param projectId The project identifier\n     * @param legalExpert The legal expert's address\n     * @param amount The amount of tokens to distribute\n     */\n    function distributeLegalEquity(bytes32 projectId, address legalExpert, uint256 amount) external onlyOwner {\n        ProjectToken storage project = projectTokens[projectId];\n        require(project.exists, \"Project does not exist\");\n        require(project.initialized, \"Project not initialized\");\n        require(legalExpert != address(0), \"Legal expert address cannot be zero\");\n        require(amount > 0, \"Amount must be greater than 0\");\n        require(amount <= project.legalTokens, \"Amount exceeds available legal tokens\");\n        \n        // Reduce available legal tokens\n        project.legalTokens -= amount;\n        \n        // Mint tokens to the legal expert\n        _mint(legalExpert, amount);\n        \n        emit EquityDistributed(projectId, legalExpert, amount, \"legal\");\n    }\n    \n    /**\n     * @dev Distributes investor equity for a project\n     * @param projectId The project identifier\n     * @param investor The investor's address\n     * @param amount The amount of tokens to distribute\n     */\n    function distributeInvestorEquity(bytes32 projectId, address investor, uint256 amount) external onlyOwner {\n        ProjectToken storage project = projectTokens[projectId];\n        require(project.exists, \"Project does not exist\");\n        require(project.initialized, \"Project not initialized\");\n        require(investor != address(0), \"Investor address cannot be zero\");\n        require(amount > 0, \"Amount must be greater than 0\");\n        require(amount <= project.investorTokens, \"Amount exceeds available investor tokens\");\n        \n        // Reduce available investor tokens\n        project.investorTokens -= amount;\n        \n        // Mint tokens to the investor\n        _mint(investor, amount);\n        \n        emit EquityDistributed(projectId, investor, amount, \"investor\");\n    }\n    \n    /**\n     * @dev Updates the platform fee percentage\n     * @param newFeePercent New fee percentage (in basis points, 1% = 100)\n     */\n    function updatePlatformFee(uint256 newFeePercent) external onlyOwner {\n        require(newFeePercent <= 500, \"Fee cannot exceed 5%\");\n        platformFeePercent = newFeePercent;\n    }\n    \n    /**\n     * @dev Updates the fee receiver address\n     * @param newFeeReceiver New address to receive platform fees\n     */\n    function updateFeeReceiver(address newFeeReceiver) external onlyOwner {\n        require(newFeeReceiver != address(0), \"Fee receiver cannot be zero address\");\n        feeReceiver = newFeeReceiver;\n    }\n    \n    /**\n     * @dev Gets the remaining available tokens for a specific role in a project\n     * @param projectId The project identifier\n     * @param role The role (1=founder, 2=developer, 3=legal, 4=investor)\n     * @return The amount of tokens available for the specified role\n     */\n    function getAvailableTokens(bytes32 projectId, uint8 role) external view returns (uint256) {\n        ProjectToken storage project = projectTokens[projectId];\n        require(project.exists, \"Project does not exist\");\n        \n        if (role == 1) return project.founderTokens;\n        if (role == 2) return project.developerTokens;\n        if (role == 3) return project.legalTokens;\n        if (role == 4) return project.investorTokens;\n        \n        revert(\"Invalid role\");\n    }\n    \n    /**\n     * @dev Returns the current total supply of tokens\n     */\n    function totalSupply() public view override returns (uint256) {\n        return _totalSupply;\n    }\n}",
  "sourcePath": "/Users/chimwopara/Documents/Coding/html/provibecoder/frontend/contracts/ethereum-contracts/contracts/ProVibeToken.sol",
  "compiler": {
    "name": "solc",
    "version": "0.8.20+commit.a1b79de6.Emscripten.clang"
  },
  "schemaVersion": "3.4.16",
  "updatedAt": "2025-03-28T21:19:31.356Z",
  "networkType": "ethereum",
  "devdoc": {
    "details": "ERC20 token for the ProVibeCoder platform This token represents equity in projects and can be distributed to contributors based on their work.",
    "errors": {
      "ERC20InsufficientAllowance(address,uint256,uint256)": [
        {
          "details": "Indicates a failure with the `spender`s `allowance`. Used in transfers.",
          "params": {
            "allowance": "Amount of tokens a `spender` is allowed to operate with.",
            "needed": "Minimum amount required to perform a transfer.",
            "spender": "Address that may be allowed to operate on tokens without being their owner."
          }
        }
      ],
      "ERC20InsufficientBalance(address,uint256,uint256)": [
        {
          "details": "Indicates an error related to the current `balance` of a `sender`. Used in transfers.",
          "params": {
            "balance": "Current balance for the interacting account.",
            "needed": "Minimum amount required to perform a transfer.",
            "sender": "Address whose tokens are being transferred."
          }
        }
      ],
      "ERC20InvalidApprover(address)": [
        {
          "details": "Indicates a failure with the `approver` of a token to be approved. Used in approvals.",
          "params": {
            "approver": "Address initiating an approval operation."
          }
        }
      ],
      "ERC20InvalidReceiver(address)": [
        {
          "details": "Indicates a failure with the token `receiver`. Used in transfers.",
          "params": {
            "receiver": "Address to which tokens are being transferred."
          }
        }
      ],
      "ERC20InvalidSender(address)": [
        {
          "details": "Indicates a failure with the token `sender`. Used in transfers.",
          "params": {
            "sender": "Address whose tokens are being transferred."
          }
        }
      ],
      "ERC20InvalidSpender(address)": [
        {
          "details": "Indicates a failure with the `spender` to be approved. Used in approvals.",
          "params": {
            "spender": "Address that may be allowed to operate on tokens without being their owner."
          }
        }
      ],
      "OwnableInvalidOwner(address)": [
        {
          "details": "The owner is not a valid owner account. (eg. `address(0)`)"
        }
      ],
      "OwnableUnauthorizedAccount(address)": [
        {
          "details": "The caller account is not authorized to perform an operation."
        }
      ]
    },
    "events": {
      "Approval(address,address,uint256)": {
        "details": "Emitted when the allowance of a `spender` for an `owner` is set by a call to {approve}. `value` is the new allowance."
      },
      "Transfer(address,address,uint256)": {
        "details": "Emitted when `value` tokens are moved from one account (`from`) to another (`to`). Note that `value` may be zero."
      }
    },
    "kind": "dev",
    "methods": {
      "allowance(address,address)": {
        "details": "See {IERC20-allowance}."
      },
      "approve(address,uint256)": {
        "details": "See {IERC20-approve}. NOTE: If `value` is the maximum `uint256`, the allowance is not updated on `transferFrom`. This is semantically equivalent to an infinite approval. Requirements: - `spender` cannot be the zero address."
      },
      "balanceOf(address)": {
        "details": "See {IERC20-balanceOf}."
      },
      "burn(uint256)": {
        "details": "Destroys a `value` amount of tokens from the caller. See {ERC20-_burn}."
      },
      "burnFrom(address,uint256)": {
        "details": "Destroys a `value` amount of tokens from `account`, deducting from the caller's allowance. See {ERC20-_burn} and {ERC20-allowance}. Requirements: - the caller must have allowance for ``accounts``'s tokens of at least `value`."
      },
      "constructor": {
        "details": "Constructor - initializes the token",
        "params": {
          "_feeReceiver": "The address to receive platform fees",
          "initialOwner": "The initial owner of the contract"
        }
      },
      "createProjectTokens(bytes32,uint256,uint256,uint256,uint256,uint256)": {
        "details": "Creates tokens for a new project",
        "params": {
          "developerPercent": "Percentage of tokens allocated to developers (in basis points)",
          "founderPercent": "Percentage of tokens allocated to the founder (in basis points, 1% = 100)",
          "investorPercent": "Percentage of tokens allocated to investors (in basis points)",
          "legalPercent": "Percentage of tokens allocated to legal experts (in basis points)",
          "projectId": "Unique identifier for the project",
          "totalTokens": "Total number of tokens to allocate for this project"
        }
      },
      "decimals()": {
        "details": "Returns the number of decimals used to get its user representation. For example, if `decimals` equals `2`, a balance of `505` tokens should be displayed to a user as `5.05` (`505 / 10 ** 2`). Tokens usually opt for a value of 18, imitating the relationship between Ether and Wei. This is the default value returned by this function, unless it's overridden. NOTE: This information is only used for _display_ purposes: it in no way affects any of the arithmetic of the contract, including {IERC20-balanceOf} and {IERC20-transfer}."
      },
      "distributeDeveloperEquity(bytes32,address,uint256)": {
        "details": "Distributes developer equity for a project",
        "params": {
          "amount": "The amount of tokens to distribute",
          "developer": "The developer's address",
          "projectId": "The project identifier"
        }
      },
      "distributeFounderEquity(bytes32,address)": {
        "details": "Distributes founder equity for a project",
        "params": {
          "founder": "The founder's address",
          "projectId": "The project identifier"
        }
      },
      "distributeInvestorEquity(bytes32,address,uint256)": {
        "details": "Distributes investor equity for a project",
        "params": {
          "amount": "The amount of tokens to distribute",
          "investor": "The investor's address",
          "projectId": "The project identifier"
        }
      },
      "distributeLegalEquity(bytes32,address,uint256)": {
        "details": "Distributes legal expert equity for a project",
        "params": {
          "amount": "The amount of tokens to distribute",
          "legalExpert": "The legal expert's address",
          "projectId": "The project identifier"
        }
      },
      "getAvailableTokens(bytes32,uint8)": {
        "details": "Gets the remaining available tokens for a specific role in a project",
        "params": {
          "projectId": "The project identifier",
          "role": "The role (1=founder, 2=developer, 3=legal, 4=investor)"
        },
        "returns": {
          "_0": "The amount of tokens available for the specified role"
        }
      },
      "name()": {
        "details": "Returns the name of the token."
      },
      "owner()": {
        "details": "Returns the address of the current owner."
      },
      "renounceOwnership()": {
        "details": "Leaves the contract without owner. It will not be possible to call `onlyOwner` functions. Can only be called by the current owner. NOTE: Renouncing ownership will leave the contract without an owner, thereby disabling any functionality that is only available to the owner."
      },
      "symbol()": {
        "details": "Returns the symbol of the token, usually a shorter version of the name."
      },
      "totalSupply()": {
        "details": "Returns the current total supply of tokens"
      },
      "transfer(address,uint256)": {
        "details": "See {IERC20-transfer}. Requirements: - `to` cannot be the zero address. - the caller must have a balance of at least `value`."
      },
      "transferFrom(address,address,uint256)": {
        "details": "See {IERC20-transferFrom}. Skips emitting an {Approval} event indicating an allowance update. This is not required by the ERC. See {xref-ERC20-_approve-address-address-uint256-bool-}[_approve]. NOTE: Does not update the allowance if the current allowance is the maximum `uint256`. Requirements: - `from` and `to` cannot be the zero address. - `from` must have a balance of at least `value`. - the caller must have allowance for ``from``'s tokens of at least `value`."
      },
      "transferOwnership(address)": {
        "details": "Transfers ownership of the contract to a new account (`newOwner`). Can only be called by the current owner."
      },
      "updateFeeReceiver(address)": {
        "details": "Updates the fee receiver address",
        "params": {
          "newFeeReceiver": "New address to receive platform fees"
        }
      },
      "updatePlatformFee(uint256)": {
        "details": "Updates the platform fee percentage",
        "params": {
          "newFeePercent": "New fee percentage (in basis points, 1% = 100)"
        }
      }
    },
    "title": "ProVibeToken",
    "version": 1
  },
  "userdoc": {
    "kind": "user",
    "methods": {},
    "version": 1
  }
}