{
  "contractName": "TaskRegistry",
  "abi": [
    {
      "inputs": [
        {
          "internalType": "address",
          "name": "_projectRegistryAddress",
          "type": "address"
        }
      ],
      "stateMutability": "nonpayable",
      "type": "constructor"
    },
    {
      "inputs": [
        {
          "internalType": "address",
          "name": "owner",
          "type": "address"
        }
      ],
      "name": "OwnableInvalidOwner",
      "type": "error"
    },
    {
      "inputs": [
        {
          "internalType": "address",
          "name": "account",
          "type": "address"
        }
      ],
      "name": "OwnableUnauthorizedAccount",
      "type": "error"
    },
    {
      "anonymous": false,
      "inputs": [
        {
          "indexed": true,
          "internalType": "address",
          "name": "previousOwner",
          "type": "address"
        },
        {
          "indexed": true,
          "internalType": "address",
          "name": "newOwner",
          "type": "address"
        }
      ],
      "name": "OwnershipTransferred",
      "type": "event"
    },
    {
      "anonymous": false,
      "inputs": [
        {
          "indexed": true,
          "internalType": "bytes32",
          "name": "taskId",
          "type": "bytes32"
        },
        {
          "indexed": true,
          "internalType": "address",
          "name": "assignee",
          "type": "address"
        },
        {
          "indexed": false,
          "internalType": "uint256",
          "name": "assignedAt",
          "type": "uint256"
        }
      ],
      "name": "TaskAssigned",
      "type": "event"
    },
    {
      "anonymous": false,
      "inputs": [
        {
          "indexed": true,
          "internalType": "bytes32",
          "name": "taskId",
          "type": "bytes32"
        }
      ],
      "name": "TaskCancelled",
      "type": "event"
    },
    {
      "anonymous": false,
      "inputs": [
        {
          "indexed": true,
          "internalType": "bytes32",
          "name": "taskId",
          "type": "bytes32"
        },
        {
          "indexed": false,
          "internalType": "string",
          "name": "deliverableURI",
          "type": "string"
        },
        {
          "indexed": false,
          "internalType": "uint256",
          "name": "completedAt",
          "type": "uint256"
        }
      ],
      "name": "TaskCompleted",
      "type": "event"
    },
    {
      "anonymous": false,
      "inputs": [
        {
          "indexed": true,
          "internalType": "bytes32",
          "name": "taskId",
          "type": "bytes32"
        },
        {
          "indexed": true,
          "internalType": "bytes32",
          "name": "projectId",
          "type": "bytes32"
        },
        {
          "indexed": false,
          "internalType": "string",
          "name": "title",
          "type": "string"
        },
        {
          "indexed": false,
          "internalType": "enum TaskRegistry.TaskType",
          "name": "taskType",
          "type": "uint8"
        },
        {
          "indexed": false,
          "internalType": "uint256",
          "name": "equityReward",
          "type": "uint256"
        }
      ],
      "name": "TaskCreated",
      "type": "event"
    },
    {
      "inputs": [],
      "name": "owner",
      "outputs": [
        {
          "internalType": "address",
          "name": "",
          "type": "address"
        }
      ],
      "stateMutability": "view",
      "type": "function",
      "constant": true
    },
    {
      "inputs": [],
      "name": "projectRegistry",
      "outputs": [
        {
          "internalType": "contract ProjectRegistry",
          "name": "",
          "type": "address"
        }
      ],
      "stateMutability": "view",
      "type": "function",
      "constant": true
    },
    {
      "inputs": [],
      "name": "renounceOwnership",
      "outputs": [],
      "stateMutability": "nonpayable",
      "type": "function"
    },
    {
      "inputs": [
        {
          "internalType": "address",
          "name": "newOwner",
          "type": "address"
        }
      ],
      "name": "transferOwnership",
      "outputs": [],
      "stateMutability": "nonpayable",
      "type": "function"
    },
    {
      "inputs": [
        {
          "internalType": "bytes32",
          "name": "taskId",
          "type": "bytes32"
        },
        {
          "internalType": "bytes32",
          "name": "projectId",
          "type": "bytes32"
        },
        {
          "internalType": "string",
          "name": "title",
          "type": "string"
        },
        {
          "internalType": "string",
          "name": "description",
          "type": "string"
        },
        {
          "internalType": "enum TaskRegistry.TaskType",
          "name": "taskType",
          "type": "uint8"
        },
        {
          "internalType": "uint256",
          "name": "equityReward",
          "type": "uint256"
        }
      ],
      "name": "createTask",
      "outputs": [],
      "stateMutability": "nonpayable",
      "type": "function"
    },
    {
      "inputs": [
        {
          "internalType": "bytes32",
          "name": "taskId",
          "type": "bytes32"
        },
        {
          "internalType": "address",
          "name": "assignee",
          "type": "address"
        }
      ],
      "name": "assignTask",
      "outputs": [],
      "stateMutability": "nonpayable",
      "type": "function"
    },
    {
      "inputs": [
        {
          "internalType": "bytes32",
          "name": "taskId",
          "type": "bytes32"
        },
        {
          "internalType": "string",
          "name": "deliverableURI",
          "type": "string"
        }
      ],
      "name": "completeTask",
      "outputs": [],
      "stateMutability": "nonpayable",
      "type": "function"
    },
    {
      "inputs": [
        {
          "internalType": "bytes32",
          "name": "taskId",
          "type": "bytes32"
        }
      ],
      "name": "cancelTask",
      "outputs": [],
      "stateMutability": "nonpayable",
      "type": "function"
    },
    {
      "inputs": [
        {
          "internalType": "bytes32",
          "name": "taskId",
          "type": "bytes32"
        }
      ],
      "name": "getTaskInfo",
      "outputs": [
        {
          "internalType": "bytes32",
          "name": "id",
          "type": "bytes32"
        },
        {
          "internalType": "bytes32",
          "name": "projectId",
          "type": "bytes32"
        },
        {
          "internalType": "string",
          "name": "title",
          "type": "string"
        },
        {
          "internalType": "string",
          "name": "description",
          "type": "string"
        },
        {
          "internalType": "enum TaskRegistry.TaskType",
          "name": "taskType",
          "type": "uint8"
        },
        {
          "internalType": "uint256",
          "name": "equityReward",
          "type": "uint256"
        },
        {
          "internalType": "address",
          "name": "assignee",
          "type": "address"
        },
        {
          "internalType": "address",
          "name": "creator",
          "type": "address"
        },
        {
          "internalType": "enum TaskRegistry.TaskStatus",
          "name": "status",
          "type": "uint8"
        },
        {
          "internalType": "uint256",
          "name": "createdAt",
          "type": "uint256"
        },
        {
          "internalType": "uint256",
          "name": "assignedAt",
          "type": "uint256"
        },
        {
          "internalType": "uint256",
          "name": "completedAt",
          "type": "uint256"
        },
        {
          "internalType": "string",
          "name": "deliverableURI",
          "type": "string"
        }
      ],
      "stateMutability": "view",
      "type": "function",
      "constant": true
    },
    {
      "inputs": [
        {
          "internalType": "bytes32",
          "name": "projectId",
          "type": "bytes32"
        }
      ],
      "name": "getProjectTasks",
      "outputs": [
        {
          "internalType": "bytes32[]",
          "name": "",
          "type": "bytes32[]"
        }
      ],
      "stateMutability": "view",
      "type": "function",
      "constant": true
    },
    {
      "inputs": [
        {
          "internalType": "bytes32",
          "name": "projectId",
          "type": "bytes32"
        },
        {
          "internalType": "enum TaskRegistry.TaskStatus",
          "name": "status",
          "type": "uint8"
        }
      ],
      "name": "getTasksByStatus",
      "outputs": [
        {
          "internalType": "bytes32[]",
          "name": "",
          "type": "bytes32[]"
        }
      ],
      "stateMutability": "view",
      "type": "function",
      "constant": true
    },
    {
      "inputs": [
        {
          "internalType": "address",
          "name": "assignee",
          "type": "address"
        }
      ],
      "name": "getAssigneeTasks",
      "outputs": [
        {
          "internalType": "bytes32[]",
          "name": "",
          "type": "bytes32[]"
        }
      ],
      "stateMutability": "view",
      "type": "function",
      "constant": true
    }
  ],
  "bytecode": "0x60803461011e57601f611cf938819003918201601f19168301916001600160401b038311848410176101225780849260209460405283398101031261011e57516001600160a01b038082169182900361011e573315610106575f549060018060a01b03199133838216175f55604051913391167f8be0079c531659141344cd1fd0a4f28419497f9722a3daafe3b4186f6b6457e05f80a382156100b457506001541617600155604051611bc290816101378239f35b62461bcd60e51b815260206004820152602760248201527f50726f6a65637420726567697374727920616464726573732063616e6e6f74206044820152666265207a65726f60c81b6064820152608490fd5b604051631e4fbdf760e01b81525f6004820152602490fd5b5f80fd5b634e487b7160e01b5f52604160045260245ffdfe60806040526004361015610011575f80fd5b5f803560e01c80634ad52e02146115f85780635a33d8dc146115cf57806365a41b641461155e578063715018a614611504578063715165ee146110b25780638da5cb5b1461108b5780639aa3d0be14610ccb578063cf471019146109b1578063d06d68f714610812578063ee8ca3b51461068f578063f2fde38b146106025763f533d4771461009e575f80fd5b346105ff5760c03660031901126105ff5760443567ffffffffffffffff81116105fb576100cf9036906004016117ef565b9060643567ffffffffffffffff81116105f7576100f09036906004016117ef565b916084359260038410156105f3576004358652600260205260ff600c604088200154166105b85760015460405163e056683360e01b815260248035600483015290918891839182906001600160a01b03165afa80156105ad57878892899261057f575b50156105415761016290611950565b6001600160a01b03163314801561052e575b156104c3576004358652600260205260408620926004358455602435600185015567ffffffffffffffff8611610331576101b16002850154611994565b601f811161047f575b508587601f821160011461041657889161040b575b508660011b905f198860031b1c19161760028501555b67ffffffffffffffff82116103315781906102036003860154611994565b601f81116103bb575b508790601f8311600114610350578892610345575b50508160011b915f199060031b1c19161760038301555b60048201805460ff851660ff199182161790915560a435600584018190556007840180546001600160a81b0319163360ff60a01b1916179055426008850155600c90930180549091166001179055602435855260036020526040852080549068010000000000000000821015610331576001820180825582101561031d57916102dd916102e893885260043590602089200155604051956060875260608701916119cc565b92602085019061177a565b60408301527f5c9f6336f21b19e6e0c3f3d4f709716a1517d39e562ca2d8500c29d588083a4c6024359280600435930390a380f35b634e487b7160e01b87526032600452602487fd5b634e487b7160e01b87526041600452602487fd5b013590505f80610221565b60038601895260208920899450915b601f19841685106103a3576001945083601f1981161061038a575b505050811b016003830155610238565b01355f19600384901b60f8161c191690555f808061037a565b8181013583556020948501946001909301920161035f565b90915060038501885260208820601f840160051c810160208510610404575b90849392915b601f830160051c820181106103f657505061020c565b5f81558594506001016103e0565b50806103da565b90508301355f6101cf565b600286018952602089209150885b601f1989168110610467575087601f1981161061044e575b5050600186811b0160028501556101e5565b8401355f19600389901b60f8161c191690555f8061043c565b90916020600181928589013581550193019101610424565b60028501885260208820601f880160051c8101602089106104bc575b601f830160051c820181106104b15750506101ba565b5f815560010161049b565b508061049b565b60405162461bcd60e51b815260206004820152603760248201527f4f6e6c792070726f6a65637420666f756e646572206f7220636f6e747261637460448201527f206f776e65722063616e20637265617465207461736b730000000000000000006064820152608490fd5b5085546001600160a01b03163314610174565b60405162461bcd60e51b8152602060048201526016602482015275141c9bda9958dd08191bd95cc81b9bdd08195e1a5cdd60521b6044820152606490fd5b91505061059e91503d8089833e6105968183611870565b81019061189f565b5050509290509091905f610153565b6040513d89823e3d90fd5b60405162461bcd60e51b81526020600482015260136024820152725461736b20616c72656164792065786973747360681b6044820152606490fd5b8580fd5b8380fd5b5080fd5b80fd5b50346105ff5760203660031901126105ff5761061c6117d5565b61062461181d565b6001600160a01b03908116908115610676575f54826bffffffffffffffffffffffff60a01b8216175f55167f8be0079c531659141344cd1fd0a4f28419497f9722a3daafe3b4186f6b6457e05f80a380f35b604051631e4fbdf760e01b815260048101849052602490fd5b50346105ff5760203660031901126105ff5760043580825260026020526007604083206106c260ff600c830154166119ec565b01805460ff8160a01c1660048110156107fe57600281141590816107f2575b50156107a1576001600160a01b038181163314908115610794575b50156107385760ff60a01b1916600360a01b1790557fe1e1d79b8f28d3379fc32f617eaf54dd6bd4071074c77e91134770e04a81d6268280a280f35b60405162461bcd60e51b815260206004820152602e60248201527f4f6e6c79207461736b2063726561746f72206f7220636f6e7472616374206f7760448201526d1b995c8818d85b8818d85b98d95b60921b6064820152608490fd5b905084541633145f6106fc565b60405162461bcd60e51b815260206004820152602360248201527f5461736b20616c726561647920636f6d706c65746564206f722063616e63656c6044820152621b195960ea1b6064820152608490fd5b6003915014155f6106e1565b634e487b7160e01b85526021600452602485fd5b50346105ff5760403660031901126105ff576024908135600481101590816109ad576004358352602091600383526040842093604051808686829854938481520190845286842092845b888282106109975750505061087392500386611870565b8093815b86518110156108ea5761088a8188611b1a565b51835260028252604083206007015460a01c60ff16846108d75760048110156108d75785146108c2575b6108bd90611af8565b610877565b946108cf6108bd91611af8565b9590506108b4565b634e487b7160e01b845260216004528884fd5b50868685856108f889611b5a565b9386805b85518110156109855761090f8187611b1a565b51825260028852604082206007015460a01c60ff1684610972576004811015610972578514610947575b61094290611af8565b6108fc565b9761096a610942916109598b89611b1a565b51610964828b611b1a565b52611af8565b989050610939565b5050634e487b7160e01b81526021600452fd5b60405180610993898261179b565b0390f35b855484526001958601958b95509301920161085c565b8280fd5b50346105ff576020806003193601126105fb57906004916109d06117d5565b9060018060a01b0360019284828554166040519788809263256323b360e11b82525afa958615610cc0578596610c1c575b50839291908116908580855b610b2c575b50610a1c90611b5a565b95809781965b610a35575b604051806109938a8261179b565b8097969751881015610b2457610a4b8882611b1a565b518252600385526040822060405180828882945493848152019086528886209286905b8b8b828410610b0b5750505050610a8792500382611870565b82875b610aa2575b5050610a9c869798611af8565b96610a22565b8151811015610b0657610ab58183611b1a565b51845260028752858560066040872001541614610add575b610ad78891611af8565b90610a8a565b99610ad7610afd828b6109648f95610af68e9789611b1a565b5192611b1a565b9b915050610acd565b610a8f565b9092945082919386548152019401920184929391610a6e565b869750610a27565b90919293948851821015610c125790610b45818a611b1a565b518852600386526040882060405190818882549182815201918b52888b20908b905b8a818310610bfb575050505081610b7f910382611870565b88835b610b9d575b5050610b9290611af8565b819594939291610a0d565b8192939151811015610bf257610bb38184611b1a565b518a52600288528686600660408d2001541614610bdd575b610bd490611af8565b81939291610b82565b93610bea610bd491611af8565b949050610bcb565b81939250610b87565b835485528c97940193928301929190910190610b67565b9493929190610a12565b9095503d8086833e610c2e8183611870565b81019083818303126105f35780519067ffffffffffffffff8211610cbc57019080601f830112156105f3578151610c6481611b42565b92610c726040519485611870565b818452858085019260051b820101928311610cb857908580889695949301915b838310610ca55750505050959091610a01565b8251815288965091810191879101610c92565b8780fd5b8680fd5b6040513d87823e3d90fd5b50346105ff5760403660031901126105ff5760043567ffffffffffffffff6024803582811161108757610d029036906004016117ef565b9091610d0c61181d565b8486526020906002825260408720610d2a60ff600c830154166119ec565b600781019182549260ff8460a01c169360048510156110745760018095036110395760ff60a01b1916600160a11b17905542600a830190815596600b830190861161102657610d798154611994565b601f8111610fe0575b50858a601f8211600114610f7f578b91610f74575b505f19600388901b1c191686851b1790555b60ff60048301541690600382101580610f61579082918b959493158015610f56575b15610e915750505060018060a01b036006818454169383015492015416823b156105f75760405163e555989f60e01b815260048101929092526001600160a01b031660248201529082908290604490829084905af18015610e8657610e72575b50507f2439c355f914eb262057cb8ed46db98a97ec584019adad2cd9c625f7c2e61789935b54610e686040519485946040865260408601916119cc565b918301520390a280f35b610e7b90611848565b6105f357855f610e2b565b6040513d84823e3d90fd5b909192939450610f44575090600289939214610ed2575b5050507f2439c355f914eb262057cb8ed46db98a97ec584019adad2cd9c625f7c2e6178993610e50565b60018060a01b036006818454169383015492015416823b156105f7576040516383c1cb9160e01b815260048101929092526001600160a01b031660248201529082908290604490829084905af18015610e8657610f30575b80610ea8565b610f3990611848565b6105f357855f610f2a565b634e487b7160e01b8a52602160045289fd5b50505f848314610dcb565b50634e487b7160e01b8a52602160045289fd5b90508701355f610d97565b828c52868c20915087601f1981168d5b89898d848410610fca575050505010610fb1575b50508386811b019055610da9565b8801355f19600389901b60f8161c191690555f80610fa3565b860135875590950194938401938b935001610f8f565b818b52858b20601f880160051c81019187891061101c575b601f0160051c019085905b828110611011575050610d82565b5f8155018590611003565b9091508190610ff8565b50634e487b7160e01b8952604160045288fd5b60405162461bcd60e51b8152600481018790526014818501527315185cdac81a5cc81b9bdd08185cdcda59db995960621b6044820152606490fd5b634e487b7160e01b8b526021600452828bfd5b8480fd5b50346105ff57806003193601126105ff57546040516001600160a01b039091168152602090f35b50346105ff5760403660031901126105ff576024906001600160a01b0382358181169160043591838103611087576110e861181d565b82855260026020526040852061110460ff600c830154166119ec565b600781019283549060ff8260a01c1660048110156114f1576114b55786156114715780600154169460018401928a8a8554986040519283809263e056683360e01b82528c60048301525afa9081156114665790611168918c91611445575b50611950565b6006850180546001600160a01b0319168a17905560ff60a01b1916600160a01b1790554260098401908155600484015490959060ff16600381101580611432579a8a9b829b98999a9b158015611426575b156112ed57505060015493546040516309fe7e4960e41b8152600481018290526001600160a01b03881660248201529095939094169391506060905081604481865afa9081156112e25786916112b2575b5015611246575b505050505060207f3bdb25236c92adb14dbb0371a1d50611197c4c37294c59b8f890083fc0fd9f6f915b54604051908152a380f35b6005015490803b1561108757604051632b045f8760e21b815260048101939093526001600160a01b0393909316602483015260448201529082908290606490829084905af18015610e865761129e575b808080611211565b6112a790611848565b6105f757835f611296565b6112d3915060603d81116112db575b6112cb8183611870565b810190611a2e565b50505f61120a565b503d6112c1565b6040513d88823e3d90fd5b91939450919650610f4457509060028994939214611334575b505050505060207f3bdb25236c92adb14dbb0371a1d50611197c4c37294c59b8f890083fc0fd9f6f9161123b565b600154604051634e05e9a360e01b8152600481018790526001600160a01b038516602482015291169190606081604481865afa908115610cc0578591611406575b50611306576005015491813b156105f75760405163d755d20f60e01b815260048101959095526001600160a01b0316602485015260448401919091528290606490829084905af18015610cc0576113d0575b84818080611306565b7f3bdb25236c92adb14dbb0371a1d50611197c4c37294c59b8f890083fc0fd9f6f91946113fe602092611848565b9491506113c7565b61141e915060603d81116112db576112cb8183611870565b50505f611375565b505087600183146111b9565b634e487b7160e01b8b5260216004528b8bfd5b61145991503d808e833e6105968183611870565b505050925050505f611162565b6040513d8d823e3d90fd5b60405162461bcd60e51b815260206004820152601f818b01527f41737369676e656520616464726573732063616e6e6f74206265207a65726f006044820152606490fd5b60405162461bcd60e51b8152602060048201526015818b0152745461736b206973206e6f7420617661696c61626c6560581b6044820152606490fd5b634e487b7160e01b895260216004528989fd5b50346105ff57806003193601126105ff5761151d61181d565b80546001600160a01b03198116825581906001600160a01b03167f8be0079c531659141344cd1fd0a4f28419497f9722a3daafe3b4186f6b6457e08280a380f35b50346105ff576020806003193601126105fb5760043582526003815260408220916040518092808554928381520194835280832092905b8282106115b857610993856115ac81890382611870565b6040519182918261179b565b835486529485019460019384019390910190611595565b50346105ff57806003193601126105ff576001546040516001600160a01b039091168152602090f35b50346105ff5760203660031901126105ff57600435815260026020526040812090600c82015460ff1661162a906119ec565b815491600181015490600481015460ff1692600582015490600160a01b60019003908160068501541691600785015490600886015493600987015495600a880154976002810161167990611a57565b61168560038301611a57565b91600b0161169290611a57565b9a604051809e8152602001528c6101a06040819201528d016116b391611755565b8c810360608e01526116c491611755565b9960808c016116d29161177a565b60a08b015260c08a0152811660e089015260a01c60ff169060048210156117205750610100870152610120860152610140850152610160840152828203610180840152829161099391611755565b634e487b7160e01b81526021600452602490fd5b5f5b8381106117455750505f910152565b8181015183820152602001611736565b9060209161176e81518092818552858086019101611734565b601f01601f1916010190565b9060038210156117875752565b634e487b7160e01b5f52602160045260245ffd5b602090816040818301928281528551809452019301915f5b8281106117c1575050505090565b8351855293810193928101926001016117b3565b600435906001600160a01b03821682036117eb57565b5f80fd5b9181601f840112156117eb5782359167ffffffffffffffff83116117eb57602083818601950101116117eb57565b5f546001600160a01b0316330361183057565b60405163118cdaa760e01b8152336004820152602490fd5b67ffffffffffffffff811161185c57604052565b634e487b7160e01b5f52604160045260245ffd5b90601f8019910116810190811067ffffffffffffffff82111761185c57604052565b519081151582036117eb57565b9160e0838303126117eb576118b383611892565b60208401519093906001600160a01b03811681036117eb5792604082015167ffffffffffffffff908181116117eb5783019082601f830112156117eb57815190811161185c5760405192611911601f8301601f191660200185611870565b818452602082840101116117eb5761192f9160208085019101611734565b9161193c60608301611892565b9160808101519160c060a083015192015190565b1561195757565b60405162461bcd60e51b815260206004820152601560248201527450726f6a656374206973206e6f742061637469766560581b6044820152606490fd5b90600182811c921680156119c2575b60208310146119ae57565b634e487b7160e01b5f52602260045260245ffd5b91607f16916119a3565b908060209392818452848401375f828201840152601f01601f1916010190565b156119f357565b60405162461bcd60e51b815260206004820152601360248201527215185cdac8191bd95cc81b9bdd08195e1a5cdd606a1b6044820152606490fd5b908160609103126117eb57611a4281611892565b91611a54604060208401519301611892565b90565b9060405191825f825492611a6a84611994565b9081845260019485811690815f14611ad55750600114611a95575b5050611a9392500383611870565b565b909391505f52602090815f20935f915b818310611abd575050611a9393508201015f80611a85565b85548884018501529485019487945091830191611aa5565b915050611a9394506020925060ff191682840152151560051b8201015f80611a85565b5f198114611b065760010190565b634e487b7160e01b5f52601160045260245ffd5b8051821015611b2e5760209160051b010190565b634e487b7160e01b5f52603260045260245ffd5b67ffffffffffffffff811161185c5760051b60200190565b90611b6482611b42565b611b716040519182611870565b8281528092611b82601f1991611b42565b019060203691013756fea2646970667358221220a68018a9946fd403571b589472c6d682e157426edc3b9e7e6c5c1827af2a845464736f6c63430008140033",
  "immutableReferences": {},
  "source": "// SPDX-License-Identifier: MIT\npragma solidity ^0.8.17;\n\nimport \"@openzeppelin/contracts/access/Ownable.sol\";\nimport \"./ProjectRegistry.sol\";\n\n/**\n * @title TaskRegistry\n * @dev Registry for managing tasks and rewards on the ProVibeCoder platform\n * This contract manages the assignment and completion of tasks for\n * developers and legal experts\n */\ncontract TaskRegistry is Ownable {\n    // Reference to the ProjectRegistry contract\n    ProjectRegistry public projectRegistry;\n    \n    // Task status options\n    enum TaskStatus { Available, Assigned, Completed, Cancelled }\n    \n    // Task type options\n    enum TaskType { Development, Security, Legal }\n    \n    // Task structure\n    struct Task {\n        bytes32 id;\n        bytes32 projectId;\n        string title;\n        string description;\n        TaskType taskType;\n        uint256 equityReward;\n        address assignee;\n        address creator;\n        TaskStatus status;\n        uint256 createdAt;\n        uint256 assignedAt;\n        uint256 completedAt;\n        string deliverableURI;\n        bool exists;\n    }\n    \n    // Mapping from task ID to Task\n    mapping(bytes32 => Task) private tasks;\n    \n    // Mapping from project ID to array of task IDs\n    mapping(bytes32 => bytes32[]) private projectTasks;\n    \n    // Events\n    event TaskCreated(bytes32 indexed taskId, bytes32 indexed projectId, string title, TaskType taskType, uint256 equityReward);\n    event TaskAssigned(bytes32 indexed taskId, address indexed assignee, uint256 assignedAt);\n    event TaskCompleted(bytes32 indexed taskId, string deliverableURI, uint256 completedAt);\n    event TaskCancelled(bytes32 indexed taskId);\n    \n    /**\n     * @dev Constructor - sets the project registry contract address\n     * @param _projectRegistryAddress Address of the ProjectRegistry contract\n     */\n    constructor(address _projectRegistryAddress) Ownable(msg.sender) {\n        require(_projectRegistryAddress != address(0), \"Project registry address cannot be zero\");\n        projectRegistry = ProjectRegistry(_projectRegistryAddress);\n    }\n    \n    /**\n     * @dev Creates a new task\n     * @param taskId Unique identifier for the task\n     * @param projectId The project identifier\n     * @param title The task title\n     * @param description The task description\n     * @param taskType The type of task (Development, Security, Legal)\n     * @param equityReward The amount of equity tokens to reward\n     */\n    function createTask(\n        bytes32 taskId,\n        bytes32 projectId,\n        string calldata title,\n        string calldata description,\n        TaskType taskType,\n        uint256 equityReward\n    ) external {\n        // Check if task exists\n        require(!tasks[taskId].exists, \"Task already exists\");\n        \n        // Check project info\n        (bool exists, address founder, , bool active, , , ) = projectRegistry.getProjectInfo(projectId);\n        require(exists, \"Project does not exist\");\n        require(active, \"Project is not active\");\n        \n        // Only project founder or contract owner can create tasks\n        require(msg.sender == founder || msg.sender == owner(), \"Only project founder or contract owner can create tasks\");\n        \n        // Create the task\n        Task storage newTask = tasks[taskId];\n        newTask.id = taskId;\n        newTask.projectId = projectId;\n        newTask.title = title;\n        newTask.description = description;\n        newTask.taskType = taskType;\n        newTask.equityReward = equityReward;\n        newTask.creator = msg.sender;\n        newTask.status = TaskStatus.Available;\n        newTask.createdAt = block.timestamp;\n        newTask.exists = true;\n        \n        // Add to project tasks\n        projectTasks[projectId].push(taskId);\n        \n        emit TaskCreated(taskId, projectId, title, taskType, equityReward);\n    }\n    \n    /**\n     * @dev Assigns a task to a developer or legal expert\n     * @param taskId The task identifier\n     * @param assignee The address of the assignee\n     */\n    function assignTask(bytes32 taskId, address assignee) external onlyOwner {\n        Task storage task = tasks[taskId];\n        require(task.exists, \"Task does not exist\");\n        require(task.status == TaskStatus.Available, \"Task is not available\");\n        require(assignee != address(0), \"Assignee address cannot be zero\");\n        \n        // Check if project is active\n        (, , , bool active, , , ) = projectRegistry.getProjectInfo(task.projectId);\n        require(active, \"Project is not active\");\n        \n        // Assign the task\n        task.assignee = assignee;\n        task.status = TaskStatus.Assigned;\n        task.assignedAt = block.timestamp;\n        \n        // If task is development or security, assign developer\n        if (task.taskType == TaskType.Development || task.taskType == TaskType.Security) {\n            // Check if developer is already assigned to this project\n            (bool hasContributed, , ) = projectRegistry.getDeveloperContribution(task.projectId, assignee);\n            \n            if (!hasContributed) {\n                // Assign developer to project\n                projectRegistry.assignDeveloper(task.projectId, assignee, task.equityReward);\n            }\n        } \n        // If task is legal, assign legal expert\n        else if (task.taskType == TaskType.Legal) {\n            // Check if legal expert is already assigned to this project\n            (bool hasContributed, , ) = projectRegistry.getLegalContribution(task.projectId, assignee);\n            \n            if (!hasContributed) {\n                // Assign legal expert to project\n                projectRegistry.assignLegalExpert(task.projectId, assignee, task.equityReward);\n            }\n        }\n        \n        emit TaskAssigned(taskId, assignee, task.assignedAt);\n    }\n    \n    /**\n     * @dev Marks a task as completed\n     * @param taskId The task identifier\n     * @param deliverableURI URI pointing to the deliverable\n     */\n    function completeTask(bytes32 taskId, string calldata deliverableURI) external onlyOwner {\n        Task storage task = tasks[taskId];\n        require(task.exists, \"Task does not exist\");\n        require(task.status == TaskStatus.Assigned, \"Task is not assigned\");\n        \n        // Mark task as completed\n        task.status = TaskStatus.Completed;\n        task.completedAt = block.timestamp;\n        task.deliverableURI = deliverableURI;\n        \n        // Distribute equity based on task type\n        if (task.taskType == TaskType.Development || task.taskType == TaskType.Security) {\n            projectRegistry.distributeDeveloperEquity(task.projectId, task.assignee);\n        } else if (task.taskType == TaskType.Legal) {\n            projectRegistry.distributeLegalEquity(task.projectId, task.assignee);\n        }\n        \n        emit TaskCompleted(taskId, deliverableURI, task.completedAt);\n    }\n    \n    /**\n     * @dev Cancels a task\n     * @param taskId The task identifier\n     */\n    function cancelTask(bytes32 taskId) external {\n        Task storage task = tasks[taskId];\n        require(task.exists, \"Task does not exist\");\n        require(task.status != TaskStatus.Completed && task.status != TaskStatus.Cancelled, \"Task already completed or cancelled\");\n        \n        // Only task creator or contract owner can cancel\n        require(msg.sender == task.creator || msg.sender == owner(), \"Only task creator or contract owner can cancel\");\n        \n        // Mark task as cancelled\n        task.status = TaskStatus.Cancelled;\n        \n        emit TaskCancelled(taskId);\n    }\n    \n    /**\n     * @dev Gets task information\n     * @param taskId The task identifier\n     * @return id The task ID\n     * @return projectId The project ID\n     * @return title The task title\n     * @return description The task description\n     * @return taskType The task type\n     * @return equityReward The equity reward amount\n     * @return assignee The assignee address\n     * @return creator The creator address\n     * @return status The task status\n     * @return createdAt When the task was created\n     * @return assignedAt When the task was assigned\n     * @return completedAt When the task was completed\n     * @return deliverableURI The deliverable URI\n     */\n    function getTaskInfo(bytes32 taskId) external view returns (\n        bytes32 id,\n        bytes32 projectId,\n        string memory title,\n        string memory description,\n        TaskType taskType,\n        uint256 equityReward,\n        address assignee,\n        address creator,\n        TaskStatus status,\n        uint256 createdAt,\n        uint256 assignedAt,\n        uint256 completedAt,\n        string memory deliverableURI\n    ) {\n        Task storage task = tasks[taskId];\n        require(task.exists, \"Task does not exist\");\n        \n        return (\n            task.id,\n            task.projectId,\n            task.title,\n            task.description,\n            task.taskType,\n            task.equityReward,\n            task.assignee,\n            task.creator,\n            task.status,\n            task.createdAt,\n            task.assignedAt,\n            task.completedAt,\n            task.deliverableURI\n        );\n    }\n    \n    /**\n     * @dev Gets all task IDs for a project\n     * @param projectId The project identifier\n     * @return Array of task IDs\n     */\n    function getProjectTasks(bytes32 projectId) external view returns (bytes32[] memory) {\n        return projectTasks[projectId];\n    }\n    \n    /**\n     * @dev Gets tasks by status for a project\n     * @param projectId The project identifier\n     * @param status The task status to filter by\n     * @return Array of task IDs\n     */\n    function getTasksByStatus(bytes32 projectId, TaskStatus status) external view returns (bytes32[] memory) {\n        bytes32[] memory allTasks = projectTasks[projectId];\n        \n        // Count tasks with specified status\n        uint256 count = 0;\n        for (uint256 i = 0; i < allTasks.length; i++) {\n            if (tasks[allTasks[i]].status == status) {\n                count++;\n            }\n        }\n        \n        // Create array of matching tasks\n        bytes32[] memory result = new bytes32[](count);\n        uint256 index = 0;\n        \n        for (uint256 i = 0; i < allTasks.length; i++) {\n            if (tasks[allTasks[i]].status == status) {\n                result[index] = allTasks[i];\n                index++;\n            }\n        }\n        \n        return result;\n    }\n    \n    /**\n     * @dev Gets tasks assigned to a specific user\n     * @param assignee The assignee address\n     * @return Array of task IDs\n     */\n    function getAssigneeTasks(address assignee) external view returns (bytes32[] memory) {\n        bytes32[] memory projectIds = projectRegistry.getAllProjectIds();\n        \n        // Count all tasks assigned to user\n        uint256 count = 0;\n        for (uint256 i = 0; i < projectIds.length; i++) {\n            bytes32[] memory pTasks = projectTasks[projectIds[i]];\n            for (uint256 j = 0; j < pTasks.length; j++) {\n                if (tasks[pTasks[j]].assignee == assignee) {\n                    count++;\n                }\n            }\n        }\n        \n        // Create array of matching tasks\n        bytes32[] memory result = new bytes32[](count);\n        uint256 index = 0;\n        \n        for (uint256 i = 0; i < projectIds.length; i++) {\n            bytes32[] memory pTasks = projectTasks[projectIds[i]];\n            for (uint256 j = 0; j < pTasks.length; j++) {\n                if (tasks[pTasks[j]].assignee == assignee) {\n                    result[index] = pTasks[j];\n                    index++;\n                }\n            }\n        }\n        \n        return result;\n    }\n}",
  "sourcePath": "/Users/chimwopara/Documents/Coding/html/provibecoder/frontend/contracts/ethereum-contracts/contracts/TaskRegistry.sol",
  "compiler": {
    "name": "solc",
    "version": "0.8.20+commit.a1b79de6.Emscripten.clang"
  },
  "schemaVersion": "3.4.16",
  "updatedAt": "2025-03-28T21:19:31.364Z",
  "networkType": "ethereum",
  "devdoc": {
    "details": "Registry for managing tasks and rewards on the ProVibeCoder platform This contract manages the assignment and completion of tasks for developers and legal experts",
    "errors": {
      "OwnableInvalidOwner(address)": [
        {
          "details": "The owner is not a valid owner account. (eg. `address(0)`)"
        }
      ],
      "OwnableUnauthorizedAccount(address)": [
        {
          "details": "The caller account is not authorized to perform an operation."
        }
      ]
    },
    "kind": "dev",
    "methods": {
      "assignTask(bytes32,address)": {
        "details": "Assigns a task to a developer or legal expert",
        "params": {
          "assignee": "The address of the assignee",
          "taskId": "The task identifier"
        }
      },
      "cancelTask(bytes32)": {
        "details": "Cancels a task",
        "params": {
          "taskId": "The task identifier"
        }
      },
      "completeTask(bytes32,string)": {
        "details": "Marks a task as completed",
        "params": {
          "deliverableURI": "URI pointing to the deliverable",
          "taskId": "The task identifier"
        }
      },
      "constructor": {
        "details": "Constructor - sets the project registry contract address",
        "params": {
          "_projectRegistryAddress": "Address of the ProjectRegistry contract"
        }
      },
      "createTask(bytes32,bytes32,string,string,uint8,uint256)": {
        "details": "Creates a new task",
        "params": {
          "description": "The task description",
          "equityReward": "The amount of equity tokens to reward",
          "projectId": "The project identifier",
          "taskId": "Unique identifier for the task",
          "taskType": "The type of task (Development, Security, Legal)",
          "title": "The task title"
        }
      },
      "getAssigneeTasks(address)": {
        "details": "Gets tasks assigned to a specific user",
        "params": {
          "assignee": "The assignee address"
        },
        "returns": {
          "_0": "Array of task IDs"
        }
      },
      "getProjectTasks(bytes32)": {
        "details": "Gets all task IDs for a project",
        "params": {
          "projectId": "The project identifier"
        },
        "returns": {
          "_0": "Array of task IDs"
        }
      },
      "getTaskInfo(bytes32)": {
        "details": "Gets task information",
        "params": {
          "taskId": "The task identifier"
        },
        "returns": {
          "assignedAt": "When the task was assigned",
          "assignee": "The assignee address",
          "completedAt": "When the task was completed",
          "createdAt": "When the task was created",
          "creator": "The creator address",
          "deliverableURI": "The deliverable URI",
          "description": "The task description",
          "equityReward": "The equity reward amount",
          "id": "The task ID",
          "projectId": "The project ID",
          "status": "The task status",
          "taskType": "The task type",
          "title": "The task title"
        }
      },
      "getTasksByStatus(bytes32,uint8)": {
        "details": "Gets tasks by status for a project",
        "params": {
          "projectId": "The project identifier",
          "status": "The task status to filter by"
        },
        "returns": {
          "_0": "Array of task IDs"
        }
      },
      "owner()": {
        "details": "Returns the address of the current owner."
      },
      "renounceOwnership()": {
        "details": "Leaves the contract without owner. It will not be possible to call `onlyOwner` functions. Can only be called by the current owner. NOTE: Renouncing ownership will leave the contract without an owner, thereby disabling any functionality that is only available to the owner."
      },
      "transferOwnership(address)": {
        "details": "Transfers ownership of the contract to a new account (`newOwner`). Can only be called by the current owner."
      }
    },
    "title": "TaskRegistry",
    "version": 1
  },
  "userdoc": {
    "kind": "user",
    "methods": {},
    "version": 1
  }
}